{
  "_format": "hh-sol-artifact-1",
  "contractName": "Blogging",
  "sourceName": "contracts/Blogging.sol",
  "abi": [
    {
      "inputs": [],
      "stateMutability": "nonpayable",
      "type": "constructor"
    },
    {
      "anonymous": false,
      "inputs": [
        {
          "indexed": false,
          "internalType": "string",
          "name": "cid",
          "type": "string"
        },
        {
          "indexed": false,
          "internalType": "address",
          "name": "commenter",
          "type": "address"
        }
      ],
      "name": "DeleteComment",
      "type": "event"
    },
    {
      "anonymous": false,
      "inputs": [
        {
          "indexed": false,
          "internalType": "string",
          "name": "cid",
          "type": "string"
        },
        {
          "indexed": false,
          "internalType": "address",
          "name": "author",
          "type": "address"
        }
      ],
      "name": "DeletePost",
      "type": "event"
    },
    {
      "anonymous": false,
      "inputs": [
        {
          "indexed": false,
          "internalType": "int256",
          "name": "id",
          "type": "int256"
        },
        {
          "indexed": false,
          "internalType": "string",
          "name": "cid",
          "type": "string"
        }
      ],
      "name": "Logging",
      "type": "event"
    },
    {
      "anonymous": false,
      "inputs": [
        {
          "indexed": false,
          "internalType": "string",
          "name": "postCid",
          "type": "string"
        },
        {
          "indexed": false,
          "internalType": "string",
          "name": "cid",
          "type": "string"
        },
        {
          "indexed": false,
          "internalType": "address",
          "name": "commenter",
          "type": "address"
        },
        {
          "indexed": false,
          "internalType": "uint256",
          "name": "timestamp",
          "type": "uint256"
        }
      ],
      "name": "NewComment",
      "type": "event"
    },
    {
      "anonymous": false,
      "inputs": [
        {
          "indexed": false,
          "internalType": "address",
          "name": "user",
          "type": "address"
        },
        {
          "indexed": false,
          "internalType": "string",
          "name": "postCid",
          "type": "string"
        }
      ],
      "name": "NewLike",
      "type": "event"
    },
    {
      "anonymous": false,
      "inputs": [
        {
          "indexed": false,
          "internalType": "string",
          "name": "cid",
          "type": "string"
        },
        {
          "indexed": false,
          "internalType": "address",
          "name": "author",
          "type": "address"
        },
        {
          "indexed": false,
          "internalType": "uint256",
          "name": "timestamp",
          "type": "uint256"
        }
      ],
      "name": "NewPost",
      "type": "event"
    },
    {
      "anonymous": false,
      "inputs": [
        {
          "indexed": false,
          "internalType": "string",
          "name": "postCid",
          "type": "string"
        },
        {
          "indexed": false,
          "internalType": "address",
          "name": "author",
          "type": "address"
        }
      ],
      "name": "ReceiveTip",
      "type": "event"
    },
    {
      "inputs": [
        {
          "internalType": "string",
          "name": "postCid",
          "type": "string"
        },
        {
          "internalType": "string",
          "name": "cid",
          "type": "string"
        },
        {
          "internalType": "address",
          "name": "author",
          "type": "address"
        },
        {
          "internalType": "uint256",
          "name": "timestamp",
          "type": "uint256"
        }
      ],
      "name": "addComment",
      "outputs": [],
      "stateMutability": "nonpayable",
      "type": "function"
    },
    {
      "inputs": [
        {
          "internalType": "string",
          "name": "cid",
          "type": "string"
        },
        {
          "internalType": "uint256",
          "name": "timestamp",
          "type": "uint256"
        }
      ],
      "name": "addPost",
      "outputs": [],
      "stateMutability": "nonpayable",
      "type": "function"
    },
    {
      "inputs": [
        {
          "internalType": "address",
          "name": "",
          "type": "address"
        },
        {
          "internalType": "uint256",
          "name": "",
          "type": "uint256"
        }
      ],
      "name": "authorPosts",
      "outputs": [
        {
          "internalType": "string",
          "name": "cid",
          "type": "string"
        },
        {
          "internalType": "address",
          "name": "author",
          "type": "address"
        },
        {
          "internalType": "uint256",
          "name": "timestamp",
          "type": "uint256"
        }
      ],
      "stateMutability": "view",
      "type": "function"
    },
    {
      "inputs": [
        {
          "internalType": "uint256",
          "name": "",
          "type": "uint256"
        }
      ],
      "name": "authors",
      "outputs": [
        {
          "internalType": "address",
          "name": "",
          "type": "address"
        }
      ],
      "stateMutability": "view",
      "type": "function"
    },
    {
      "inputs": [
        {
          "internalType": "string",
          "name": "postCid",
          "type": "string"
        },
        {
          "internalType": "string",
          "name": "cid",
          "type": "string"
        },
        {
          "internalType": "address",
          "name": "author",
          "type": "address"
        },
        {
          "internalType": "address",
          "name": "commenter",
          "type": "address"
        }
      ],
      "name": "deleteComment",
      "outputs": [],
      "stateMutability": "nonpayable",
      "type": "function"
    },
    {
      "inputs": [
        {
          "internalType": "string",
          "name": "cid",
          "type": "string"
        },
        {
          "internalType": "address",
          "name": "author",
          "type": "address"
        }
      ],
      "name": "deletePost",
      "outputs": [],
      "stateMutability": "nonpayable",
      "type": "function"
    },
    {
      "inputs": [],
      "name": "getAuthors",
      "outputs": [
        {
          "internalType": "address[]",
          "name": "",
          "type": "address[]"
        }
      ],
      "stateMutability": "view",
      "type": "function"
    },
    {
      "inputs": [
        {
          "internalType": "string",
          "name": "postCid",
          "type": "string"
        }
      ],
      "name": "getCommentsByPost",
      "outputs": [
        {
          "components": [
            {
              "internalType": "string",
              "name": "cid",
              "type": "string"
            },
            {
              "internalType": "string",
              "name": "postCid",
              "type": "string"
            },
            {
              "internalType": "address",
              "name": "commenter",
              "type": "address"
            },
            {
              "internalType": "uint256",
              "name": "timestamp",
              "type": "uint256"
            }
          ],
          "internalType": "struct Blogging.Comment[]",
          "name": "",
          "type": "tuple[]"
        }
      ],
      "stateMutability": "view",
      "type": "function"
    },
    {
      "inputs": [
        {
          "internalType": "address",
          "name": "user",
          "type": "address"
        }
      ],
      "name": "getCommentsByUser",
      "outputs": [
        {
          "components": [
            {
              "internalType": "string",
              "name": "cid",
              "type": "string"
            },
            {
              "internalType": "string",
              "name": "postCid",
              "type": "string"
            },
            {
              "internalType": "address",
              "name": "commenter",
              "type": "address"
            },
            {
              "internalType": "uint256",
              "name": "timestamp",
              "type": "uint256"
            }
          ],
          "internalType": "struct Blogging.Comment[]",
          "name": "",
          "type": "tuple[]"
        }
      ],
      "stateMutability": "view",
      "type": "function"
    },
    {
      "inputs": [
        {
          "internalType": "string",
          "name": "postCid",
          "type": "string"
        }
      ],
      "name": "getCommentsNumberByPost",
      "outputs": [
        {
          "internalType": "uint256",
          "name": "",
          "type": "uint256"
        }
      ],
      "stateMutability": "view",
      "type": "function"
    },
    {
      "inputs": [
        {
          "internalType": "address",
          "name": "user",
          "type": "address"
        }
      ],
      "name": "getLikesByUser",
      "outputs": [
        {
          "internalType": "string[]",
          "name": "",
          "type": "string[]"
        }
      ],
      "stateMutability": "view",
      "type": "function"
    },
    {
      "inputs": [
        {
          "internalType": "string",
          "name": "postCid",
          "type": "string"
        }
      ],
      "name": "getLikesNumberByPost",
      "outputs": [
        {
          "internalType": "uint256",
          "name": "",
          "type": "uint256"
        }
      ],
      "stateMutability": "view",
      "type": "function"
    },
    {
      "inputs": [
        {
          "internalType": "address",
          "name": "author",
          "type": "address"
        }
      ],
      "name": "getPostsByAuthor",
      "outputs": [
        {
          "components": [
            {
              "internalType": "string",
              "name": "cid",
              "type": "string"
            },
            {
              "internalType": "address",
              "name": "author",
              "type": "address"
            },
            {
              "internalType": "uint256",
              "name": "timestamp",
              "type": "uint256"
            }
          ],
          "internalType": "struct Blogging.Post[]",
          "name": "",
          "type": "tuple[]"
        }
      ],
      "stateMutability": "view",
      "type": "function"
    },
    {
      "inputs": [
        {
          "internalType": "string",
          "name": "postCid",
          "type": "string"
        },
        {
          "internalType": "address",
          "name": "author",
          "type": "address"
        }
      ],
      "name": "like",
      "outputs": [],
      "stateMutability": "nonpayable",
      "type": "function"
    },
    {
      "inputs": [
        {
          "internalType": "uint256",
          "name": "page",
          "type": "uint256"
        },
        {
          "internalType": "uint256",
          "name": "limit",
          "type": "uint256"
        },
        {
          "internalType": "address",
          "name": "author",
          "type": "address"
        }
      ],
      "name": "paginatePosts",
      "outputs": [
        {
          "components": [
            {
              "internalType": "string",
              "name": "cid",
              "type": "string"
            },
            {
              "internalType": "address",
              "name": "author",
              "type": "address"
            },
            {
              "internalType": "uint256",
              "name": "timestamp",
              "type": "uint256"
            }
          ],
          "internalType": "struct Blogging.Post[]",
          "name": "",
          "type": "tuple[]"
        }
      ],
      "stateMutability": "view",
      "type": "function"
    },
    {
      "inputs": [
        {
          "internalType": "string",
          "name": "",
          "type": "string"
        },
        {
          "internalType": "uint256",
          "name": "",
          "type": "uint256"
        }
      ],
      "name": "postComments",
      "outputs": [
        {
          "internalType": "string",
          "name": "cid",
          "type": "string"
        },
        {
          "internalType": "string",
          "name": "postCid",
          "type": "string"
        },
        {
          "internalType": "address",
          "name": "commenter",
          "type": "address"
        },
        {
          "internalType": "uint256",
          "name": "timestamp",
          "type": "uint256"
        }
      ],
      "stateMutability": "view",
      "type": "function"
    },
    {
      "inputs": [
        {
          "internalType": "string",
          "name": "",
          "type": "string"
        },
        {
          "internalType": "uint256",
          "name": "",
          "type": "uint256"
        }
      ],
      "name": "postLikes",
      "outputs": [
        {
          "internalType": "address",
          "name": "",
          "type": "address"
        }
      ],
      "stateMutability": "view",
      "type": "function"
    },
    {
      "inputs": [
        {
          "internalType": "string",
          "name": "postCid",
          "type": "string"
        },
        {
          "internalType": "address",
          "name": "author",
          "type": "address"
        }
      ],
      "name": "tipAuthor",
      "outputs": [],
      "stateMutability": "payable",
      "type": "function"
    },
    {
      "inputs": [
        {
          "internalType": "string",
          "name": "postCid",
          "type": "string"
        },
        {
          "internalType": "address",
          "name": "author",
          "type": "address"
        }
      ],
      "name": "unlike",
      "outputs": [],
      "stateMutability": "nonpayable",
      "type": "function"
    },
    {
      "inputs": [
        {
          "internalType": "address",
          "name": "",
          "type": "address"
        },
        {
          "internalType": "uint256",
          "name": "",
          "type": "uint256"
        }
      ],
      "name": "userComments",
      "outputs": [
        {
          "internalType": "string",
          "name": "cid",
          "type": "string"
        },
        {
          "internalType": "string",
          "name": "postCid",
          "type": "string"
        },
        {
          "internalType": "address",
          "name": "commenter",
          "type": "address"
        },
        {
          "internalType": "uint256",
          "name": "timestamp",
          "type": "uint256"
        }
      ],
      "stateMutability": "view",
      "type": "function"
    },
    {
      "inputs": [
        {
          "internalType": "address",
          "name": "",
          "type": "address"
        },
        {
          "internalType": "uint256",
          "name": "",
          "type": "uint256"
        }
      ],
      "name": "userLikes",
      "outputs": [
        {
          "internalType": "string",
          "name": "",
          "type": "string"
        }
      ],
      "stateMutability": "view",
      "type": "function"
    }
  ],
  "bytecode": "0x6080604052348015600f57600080fd5b50615b578061001f6000396000f3fe60806040526004361061012a5760003560e01c806399c33ff6116100ab578063df276d811161006f578063df276d8114610451578063f4ab24991461046d578063f56d0243146104aa578063fcad0799146104e7578063fedab32414610510578063ffde2b471461054d5761012a565b806399c33ff6146103205780639e78b8a61461035d578063b6d65f9c1461039a578063b8fd8eb3146103d7578063d5927169146104145761012a565b80636ca063b4116100f25780636ca063b4146102105780636df4973c1461024d578063791294711461028c5780637fc622f4146102cc5780638b6827e2146102f75761012a565b80630823e37f1461012f5780632560b135146101585780633db804da146101815780635728aeac146101be57806366ea76d5146101e7575b600080fd5b34801561013b57600080fd5b5061015660048036038101906101519190614781565b61058d565b005b34801561016457600080fd5b5061017f600480360381019061017a9190614781565b610e21565b005b34801561018d57600080fd5b506101a860048036038101906101a39190614813565b6112db565b6040516101b5919061484f565b60405180910390f35b3480156101ca57600080fd5b506101e560048036038101906101e09190614781565b61131a565b005b3480156101f357600080fd5b5061020e6004803603810190610209919061486a565b611a91565b005b34801561021c57600080fd5b50610237600480360381019061023291906148c6565b611c9d565b604051610244919061491e565b60405180910390f35b34801561025957600080fd5b50610274600480360381019061026f9190614939565b611cb0565b604051610283939291906149f8565b60405180910390f35b34801561029857600080fd5b506102b360048036038101906102ae9190614939565b611d9f565b6040516102c39493929190614a36565b60405180910390f35b3480156102d857600080fd5b506102e1611f1c565b6040516102ee9190614b47565b60405180910390f35b34801561030357600080fd5b5061031e60048036038101906103199190614b69565b611faa565b005b34801561032c57600080fd5b5061034760048036038101906103429190614c08565b6123e2565b6040516103549190614dc6565b60405180910390f35b34801561036957600080fd5b50610384600480360381019061037f9190614de8565b6125eb565b6040516103919190614f41565b60405180910390f35b3480156103a657600080fd5b506103c160048036038101906103bc91906148c6565b61263b565b6040516103ce9190614f41565b60405180910390f35b3480156103e357600080fd5b506103fe60048036038101906103f9919061486a565b61266a565b60405161040b919061484f565b60405180910390f35b34801561042057600080fd5b5061043b60048036038101906104369190614de8565b6126ce565b6040516104489190615025565b60405180910390f35b61046b60048036038101906104669190614781565b6127e6565b005b34801561047957600080fd5b50610494600480360381019061048f9190614de8565b612a6e565b6040516104a19190614dc6565b60405180910390f35b3480156104b657600080fd5b506104d160048036038101906104cc91906148c6565b612c06565b6040516104de919061491e565b60405180910390f35b3480156104f357600080fd5b5061050e60048036038101906105099190615047565b612c31565b005b34801561051c57600080fd5b5061053760048036038101906105329190614939565b61306f565b60405161054491906150e6565b60405180910390f35b34801561055957600080fd5b50610574600480360381019061056f919061486a565b613128565b6040516105849493929190614a36565b60405180910390f35b8082600061072a82600160008673ffffffffffffffffffffffffffffffffffffffff1673ffffffffffffffffffffffffffffffffffffffff168152602001908152602001600020805480602002602001604051908101604052809291908181526020016000905b82821015610718578382906000526020600020906003020160405180606001604052908160008201805461062790615137565b80601f016020809104026020016040519081016040528092919081815260200182805461065390615137565b80156106a05780601f10610675576101008083540402835291602001916106a0565b820191906000526020600020905b81548152906001019060200180831161068357829003601f168201915b505050505081526020016001820160009054906101000a900473ffffffffffffffffffffffffffffffffffffffff1673ffffffffffffffffffffffffffffffffffffffff1673ffffffffffffffffffffffffffffffffffffffff168152602001600282015481525050815260200190600101906105f4565b505050506132bb90919063ffffffff16565b90507fffffffffffffffffffffffffffffffffffffffffffffffffffffffffffffffff811361078e576040517f08c379a0000000000000000000000000000000000000000000000000000000008152600401610785906151b4565b60405180910390fd5b838073ffffffffffffffffffffffffffffffffffffffff163373ffffffffffffffffffffffffffffffffffffffff16146107fd576040517f08c379a00000000000000000000000000000000000000000000000000000000081526004016107f490615246565b60405180910390fd5b60006108088761333a565b905060005b8151811015610a9a57600082828151811061082b5761082a615266565b5b602002602001015190506109196108ed8260048c60405161084c91906152d1565b90815260200160405180910390208054806020026020016040519081016040528092919081815260200182805480156108da57602002820191906000526020600020905b8160009054906101000a900473ffffffffffffffffffffffffffffffffffffffff1673ffffffffffffffffffffffffffffffffffffffff1681526020019060010190808311610890575b505050505061346190919063ffffffff16565b60048b6040516108fd91906152d1565b908152602001604051809103902061350090919063ffffffff16565b50610a8b610a3e8a600560008573ffffffffffffffffffffffffffffffffffffffff1673ffffffffffffffffffffffffffffffffffffffff168152602001908152602001600020805480602002602001604051908101604052809291908181526020016000905b82821015610a2c57838290600052602060002001805461099f90615137565b80601f01602080910402602001604051908101604052809291908181526020018280546109cb90615137565b8015610a185780601f106109ed57610100808354040283529160200191610a18565b820191906000526020600020905b8154815290600101906020018083116109fb57829003601f168201915b505050505081526020019060010190610980565b5050505061367790919063ffffffff16565b600560008473ffffffffffffffffffffffffffffffffffffffff1673ffffffffffffffffffffffffffffffffffffffff1681526020019081526020016000206136f290919063ffffffff16565b5050808060010191505061080d565b506000610aa688613800565b905060005b8151811015610af5576000828281518110610ac957610ac8615266565b5b60200260200101519050610ae78a82600001518b8460400151612c31565b508080600101915050610aab565b506000610c9189600160008b73ffffffffffffffffffffffffffffffffffffffff1673ffffffffffffffffffffffffffffffffffffffff168152602001908152602001600020805480602002602001604051908101604052809291908181526020016000905b82821015610c7f5783829060005260206000209060030201604051806060016040529081600082018054610b8e90615137565b80601f0160208091040260200160405190810160405280929190818152602001828054610bba90615137565b8015610c075780601f10610bdc57610100808354040283529160200191610c07565b820191906000526020600020905b815481529060010190602001808311610bea57829003601f168201915b505050505081526020016001820160009054906101000a900473ffffffffffffffffffffffffffffffffffffffff1673ffffffffffffffffffffffffffffffffffffffff1673ffffffffffffffffffffffffffffffffffffffff16815260200160028201548152505081526020019060010190610b5b565b505050506132bb90919063ffffffff16565b9050610ce481600160008b73ffffffffffffffffffffffffffffffffffffffff1673ffffffffffffffffffffffffffffffffffffffff168152602001908152602001600020613a7590919063ffffffff16565b506000600160008a73ffffffffffffffffffffffffffffffffffffffff1673ffffffffffffffffffffffffffffffffffffffff1681526020019081526020016000208054905003610ddd57610ddb610dcb896000805480602002602001604051908101604052809291908181526020018280548015610db857602002820191906000526020600020905b8160009054906101000a900473ffffffffffffffffffffffffffffffffffffffff1673ffffffffffffffffffffffffffffffffffffffff1681526020019060010190808311610d6e575b505050505061346190919063ffffffff16565b600061350090919063ffffffff16565b505b7fb6ced325e234d6c37dea056f3a61cda9260bd5126eadfbe0e1ad189e6c28903b8989604051610e0e9291906152e8565b60405180910390a1505050505050505050565b80826000610fbe82600160008673ffffffffffffffffffffffffffffffffffffffff1673ffffffffffffffffffffffffffffffffffffffff168152602001908152602001600020805480602002602001604051908101604052809291908181526020016000905b82821015610fac5783829060005260206000209060030201604051806060016040529081600082018054610ebb90615137565b80601f0160208091040260200160405190810160405280929190818152602001828054610ee790615137565b8015610f345780601f10610f0957610100808354040283529160200191610f34565b820191906000526020600020905b815481529060010190602001808311610f1757829003601f168201915b505050505081526020016001820160009054906101000a900473ffffffffffffffffffffffffffffffffffffffff1673ffffffffffffffffffffffffffffffffffffffff1673ffffffffffffffffffffffffffffffffffffffff16815260200160028201548152505081526020019060010190610e88565b505050506132bb90919063ffffffff16565b90507fffffffffffffffffffffffffffffffffffffffffffffffffffffffffffffffff8113611022576040517f08c379a0000000000000000000000000000000000000000000000000000000008152600401611019906151b4565b60405180910390fd5b60003390507fffffffffffffffffffffffffffffffffffffffffffffffffffffffffffffffff61116987600560008573ffffffffffffffffffffffffffffffffffffffff1673ffffffffffffffffffffffffffffffffffffffff168152602001908152602001600020805480602002602001604051908101604052809291908181526020016000905b828210156111575783829060005260206000200180546110ca90615137565b80601f01602080910402602001604051908101604052809291908181526020018280546110f690615137565b80156111435780601f1061111857610100808354040283529160200191611143565b820191906000526020600020905b81548152906001019060200180831161112657829003601f168201915b5050505050815260200190600101906110ab565b5050505061367790919063ffffffff16565b146111a9576040517f08c379a00000000000000000000000000000000000000000000000000000000081526004016111a090615364565b60405180910390fd5b6004866040516111b991906152d1565b9081526020016040518091039020339080600181540180825580915050600190039060005260206000200160009091909190916101000a81548173ffffffffffffffffffffffffffffffffffffffff021916908373ffffffffffffffffffffffffffffffffffffffff160217905550600560008273ffffffffffffffffffffffffffffffffffffffff1673ffffffffffffffffffffffffffffffffffffffff168152602001908152602001600020869080600181540180825580915050600190039060005260206000200160009091909190915090816112999190615530565b507ff9e74acd3cb4f20e9b6228280822ad17c3e331612f9605daf913ae3599e3176381876040516112cb929190615602565b60405180910390a1505050505050565b600081815481106112eb57600080fd5b906000526020600020016000915054906101000a900473ffffffffffffffffffffffffffffffffffffffff1681565b808260006114b782600160008673ffffffffffffffffffffffffffffffffffffffff1673ffffffffffffffffffffffffffffffffffffffff168152602001908152602001600020805480602002602001604051908101604052809291908181526020016000905b828210156114a557838290600052602060002090600302016040518060600160405290816000820180546113b490615137565b80601f01602080910402602001604051908101604052809291908181526020018280546113e090615137565b801561142d5780601f106114025761010080835404028352916020019161142d565b820191906000526020600020905b81548152906001019060200180831161141057829003601f168201915b505050505081526020016001820160009054906101000a900473ffffffffffffffffffffffffffffffffffffffff1673ffffffffffffffffffffffffffffffffffffffff1673ffffffffffffffffffffffffffffffffffffffff16815260200160028201548152505081526020019060010190611381565b505050506132bb90919063ffffffff16565b90507fffffffffffffffffffffffffffffffffffffffffffffffffffffffffffffffff811361151b576040517f08c379a0000000000000000000000000000000000000000000000000000000008152600401611512906151b4565b60405180910390fd5b84600061163f82600560003373ffffffffffffffffffffffffffffffffffffffff1673ffffffffffffffffffffffffffffffffffffffff168152602001908152602001600020805480602002602001604051908101604052809291908181526020016000905b8282101561162d5783829060005260206000200180546115a090615137565b80601f01602080910402602001604051908101604052809291908181526020018280546115cc90615137565b80156116195780601f106115ee57610100808354040283529160200191611619565b820191906000526020600020905b8154815290600101906020018083116115fc57829003601f168201915b505050505081526020019060010190611581565b5050505061367790919063ffffffff16565b90507fffffffffffffffffffffffffffffffffffffffffffffffffffffffffffffffff81136116a3576040517f08c379a000000000000000000000000000000000000000000000000000000000815260040161169a9061567e565b60405180910390fd5b600033905060006117cb89600560008573ffffffffffffffffffffffffffffffffffffffff1673ffffffffffffffffffffffffffffffffffffffff168152602001908152602001600020805480602002602001604051908101604052809291908181526020016000905b828210156117b957838290600052602060002001805461172c90615137565b80601f016020809104026020016040519081016040528092919081815260200182805461175890615137565b80156117a55780601f1061177a576101008083540402835291602001916117a5565b820191906000526020600020905b81548152906001019060200180831161178857829003601f168201915b50505050508152602001906001019061170d565b5050505061367790919063ffffffff16565b90507fffffffffffffffffffffffffffffffffffffffffffffffffffffffffffffffff811361182f576040517f08c379a00000000000000000000000000000000000000000000000000000000081526004016118269061567e565b60405180910390fd5b6119136118e78360048c60405161184691906152d1565b90815260200160405180910390208054806020026020016040519081016040528092919081815260200182805480156118d457602002820191906000526020600020905b8160009054906101000a900473ffffffffffffffffffffffffffffffffffffffff1673ffffffffffffffffffffffffffffffffffffffff168152602001906001019080831161188a575b505050505061346190919063ffffffff16565b60048b6040516118f791906152d1565b908152602001604051809103902061350090919063ffffffff16565b50611a85611a388a600560008673ffffffffffffffffffffffffffffffffffffffff1673ffffffffffffffffffffffffffffffffffffffff168152602001908152602001600020805480602002602001604051908101604052809291908181526020016000905b82821015611a2657838290600052602060002001805461199990615137565b80601f01602080910402602001604051908101604052809291908181526020018280546119c590615137565b8015611a125780601f106119e757610100808354040283529160200191611a12565b820191906000526020600020905b8154815290600101906020018083116119f557829003601f168201915b50505050508152602001906001019061197a565b5050505061367790919063ffffffff16565b600560008573ffffffffffffffffffffffffffffffffffffffff1673ffffffffffffffffffffffffffffffffffffffff1681526020019081526020016000206136f290919063ffffffff16565b50505050505050505050565b60003390506000600160008373ffffffffffffffffffffffffffffffffffffffff1673ffffffffffffffffffffffffffffffffffffffff16815260200190815260200160002090506000818054905003611b49576000829080600181540180825580915050600190039060005260206000200160009091909190916101000a81548173ffffffffffffffffffffffffffffffffffffffff021916908373ffffffffffffffffffffffffffffffffffffffff1602179055505b8060405180606001604052808681526020018473ffffffffffffffffffffffffffffffffffffffff1681526020018581525090806001815401808255809150506001900390600052602060002090600302016000909190919091506000820151816000019081611bb99190615530565b5060208201518160010160006101000a81548173ffffffffffffffffffffffffffffffffffffffff021916908373ffffffffffffffffffffffffffffffffffffffff16021790555060408201518160020155505080600160008473ffffffffffffffffffffffffffffffffffffffff1673ffffffffffffffffffffffffffffffffffffffff168152602001908152602001600020908054611c5b9291906143c3565b507ff5f27ce8312c4323a3aa6c00bb8470a0280a9a72a8bd50198f78da4cf181b575848385604051611c8f939291906149f8565b60405180910390a150505050565b6000611ca88261263b565b519050919050565b60016020528160005260406000208181548110611ccc57600080fd5b906000526020600020906003020160009150915050806000018054611cf090615137565b80601f0160208091040260200160405190810160405280929190818152602001828054611d1c90615137565b8015611d695780601f10611d3e57610100808354040283529160200191611d69565b820191906000526020600020905b815481529060010190602001808311611d4c57829003601f168201915b5050505050908060010160009054906101000a900473ffffffffffffffffffffffffffffffffffffffff16908060020154905083565b60036020528160005260406000208181548110611dbb57600080fd5b906000526020600020906004020160009150915050806000018054611ddf90615137565b80601f0160208091040260200160405190810160405280929190818152602001828054611e0b90615137565b8015611e585780601f10611e2d57610100808354040283529160200191611e58565b820191906000526020600020905b815481529060010190602001808311611e3b57829003601f168201915b505050505090806001018054611e6d90615137565b80601f0160208091040260200160405190810160405280929190818152602001828054611e9990615137565b8015611ee65780601f10611ebb57610100808354040283529160200191611ee6565b820191906000526020600020905b815481529060010190602001808311611ec957829003601f168201915b5050505050908060020160009054906101000a900473ffffffffffffffffffffffffffffffffffffffff16908060030154905084565b60606000805480602002602001604051908101604052809291908181526020018280548015611fa057602002820191906000526020600020905b8160009054906101000a900473ffffffffffffffffffffffffffffffffffffffff1673ffffffffffffffffffffffffffffffffffffffff1681526020019060010190808311611f56575b5050505050905090565b8184600061214782600160008673ffffffffffffffffffffffffffffffffffffffff1673ffffffffffffffffffffffffffffffffffffffff168152602001908152602001600020805480602002602001604051908101604052809291908181526020016000905b82821015612135578382906000526020600020906003020160405180606001604052908160008201805461204490615137565b80601f016020809104026020016040519081016040528092919081815260200182805461207090615137565b80156120bd5780601f10612092576101008083540402835291602001916120bd565b820191906000526020600020905b8154815290600101906020018083116120a057829003601f168201915b505050505081526020016001820160009054906101000a900473ffffffffffffffffffffffffffffffffffffffff1673ffffffffffffffffffffffffffffffffffffffff1673ffffffffffffffffffffffffffffffffffffffff16815260200160028201548152505081526020019060010190612011565b505050506132bb90919063ffffffff16565b90507fffffffffffffffffffffffffffffffffffffffffffffffffffffffffffffffff81136121ab576040517f08c379a00000000000000000000000000000000000000000000000000000000081526004016121a2906151b4565b60405180910390fd5b6000339050600060405180608001604052808981526020018a81526020018373ffffffffffffffffffffffffffffffffffffffff1681526020018781525090506002896040516121fb91906152d1565b908152602001604051809103902081908060018154018082558091505060019003906000526020600020906004020160009091909190915060008201518160000190816122489190615530565b50602082015181600101908161225e9190615530565b5060408201518160020160006101000a81548173ffffffffffffffffffffffffffffffffffffffff021916908373ffffffffffffffffffffffffffffffffffffffff160217905550606082015181600301555050600360008373ffffffffffffffffffffffffffffffffffffffff1673ffffffffffffffffffffffffffffffffffffffff16815260200190815260200160002081908060018154018082558091505060019003906000526020600020906004020160009091909190915060008201518160000190816123309190615530565b5060208201518160010190816123469190615530565b5060408201518160020160006101000a81548173ffffffffffffffffffffffffffffffffffffffff021916908373ffffffffffffffffffffffffffffffffffffffff1602179055506060820151816003015550507f96e7bc5e99109f73113a22f60f9fa3a143810d45ebc1d5a78b6532e36d462a94898984896040516123cf9493929190614a36565b60405180910390a1505050505050505050565b60606000600160008473ffffffffffffffffffffffffffffffffffffffff1673ffffffffffffffffffffffffffffffffffffffff168152602001908152602001600020805480602002602001604051908101604052809291908181526020016000905b82821015612569578382906000526020600020906003020160405180606001604052908160008201805461247890615137565b80601f01602080910402602001604051908101604052809291908181526020018280546124a490615137565b80156124f15780601f106124c6576101008083540402835291602001916124f1565b820191906000526020600020905b8154815290600101906020018083116124d457829003601f168201915b505050505081526020016001820160009054906101000a900473ffffffffffffffffffffffffffffffffffffffff1673ffffffffffffffffffffffffffffffffffffffff1673ffffffffffffffffffffffffffffffffffffffff16815260200160028201548152505081526020019060010190612445565b50505050905060008460018761257f91906156cd565b6125899190615701565b905060006125ba868760018a61259f91906156cd565b6125a99190615701565b6125b39190615743565b8451613c41565b905060006125d3838386613c5d9092919063ffffffff16565b90506125de81613d2d565b9450505050509392505050565b6060612634600360008473ffffffffffffffffffffffffffffffffffffffff1673ffffffffffffffffffffffffffffffffffffffff168152602001908152602001600020613dfc565b9050919050565b606061266360028360405161265091906152d1565b9081526020016040518091039020613dfc565b9050919050565b600482805160208101820180518482526020830160208501208183528095505050505050818154811061269c57600080fd5b906000526020600020016000915091509054906101000a900473ffffffffffffffffffffffffffffffffffffffff1681565b6060600560008373ffffffffffffffffffffffffffffffffffffffff1673ffffffffffffffffffffffffffffffffffffffff168152602001908152602001600020805480602002602001604051908101604052809291908181526020016000905b828210156127db57838290600052602060002001805461274e90615137565b80601f016020809104026020016040519081016040528092919081815260200182805461277a90615137565b80156127c75780601f1061279c576101008083540402835291602001916127c7565b820191906000526020600020905b8154815290600101906020018083116127aa57829003601f168201915b50505050508152602001906001019061272f565b505050509050919050565b8082600061298382600160008673ffffffffffffffffffffffffffffffffffffffff1673ffffffffffffffffffffffffffffffffffffffff168152602001908152602001600020805480602002602001604051908101604052809291908181526020016000905b82821015612971578382906000526020600020906003020160405180606001604052908160008201805461288090615137565b80601f01602080910402602001604051908101604052809291908181526020018280546128ac90615137565b80156128f95780601f106128ce576101008083540402835291602001916128f9565b820191906000526020600020905b8154815290600101906020018083116128dc57829003601f168201915b505050505081526020016001820160009054906101000a900473ffffffffffffffffffffffffffffffffffffffff1673ffffffffffffffffffffffffffffffffffffffff1673ffffffffffffffffffffffffffffffffffffffff1681526020016002820154815250508152602001906001019061284d565b505050506132bb90919063ffffffff16565b90507fffffffffffffffffffffffffffffffffffffffffffffffffffffffffffffffff81136129e7576040517f08c379a00000000000000000000000000000000000000000000000000000000081526004016129de906151b4565b60405180910390fd5b8373ffffffffffffffffffffffffffffffffffffffff166108fc349081150290604051600060405180830381858888f19350505050158015612a2d573d6000803e3d6000fd5b507f8f70efd0e38d5fa5f1edc71daf9513a32378acdc49241acbaf6e762a3e0e3a0e8585604051612a5f9291906152e8565b60405180910390a15050505050565b6060612bff600160008473ffffffffffffffffffffffffffffffffffffffff1673ffffffffffffffffffffffffffffffffffffffff168152602001908152602001600020805480602002602001604051908101604052809291908181526020016000905b82821015612bf65783829060005260206000209060030201604051806060016040529081600082018054612b0590615137565b80601f0160208091040260200160405190810160405280929190818152602001828054612b3190615137565b8015612b7e5780601f10612b5357610100808354040283529160200191612b7e565b820191906000526020600020905b815481529060010190602001808311612b6157829003601f168201915b505050505081526020016001820160009054906101000a900473ffffffffffffffffffffffffffffffffffffffff1673ffffffffffffffffffffffffffffffffffffffff1673ffffffffffffffffffffffffffffffffffffffff16815260200160028201548152505081526020019060010190612ad2565b50505050613d2d565b9050919050565b6000600482604051612c1891906152d1565b9081526020016040518091039020805490509050919050565b81846000612dce82600160008673ffffffffffffffffffffffffffffffffffffffff1673ffffffffffffffffffffffffffffffffffffffff168152602001908152602001600020805480602002602001604051908101604052809291908181526020016000905b82821015612dbc5783829060005260206000209060030201604051806060016040529081600082018054612ccb90615137565b80601f0160208091040260200160405190810160405280929190818152602001828054612cf790615137565b8015612d445780601f10612d1957610100808354040283529160200191612d44565b820191906000526020600020905b815481529060010190602001808311612d2757829003601f168201915b505050505081526020016001820160009054906101000a900473ffffffffffffffffffffffffffffffffffffffff1673ffffffffffffffffffffffffffffffffffffffff1673ffffffffffffffffffffffffffffffffffffffff16815260200160028201548152505081526020019060010190612c98565b505050506132bb90919063ffffffff16565b90507fffffffffffffffffffffffffffffffffffffffffffffffffffffffffffffffff8113612e32576040517f08c379a0000000000000000000000000000000000000000000000000000000008152600401612e29906151b4565b60405180910390fd5b86866000612e6682600285604051612e4a91906152d1565b908152602001604051809103902061406990919063ffffffff16565b90507fffffffffffffffffffffffffffffffffffffffffffffffffffffffffffffffff8113612eca576040517f08c379a0000000000000000000000000000000000000000000000000000000008152600401612ec1906157c3565b60405180910390fd5b86888173ffffffffffffffffffffffffffffffffffffffff163373ffffffffffffffffffffffffffffffffffffffff161480612f3157508073ffffffffffffffffffffffffffffffffffffffff163373ffffffffffffffffffffffffffffffffffffffff16145b612f70576040517f08c379a0000000000000000000000000000000000000000000000000000000008152600401612f6790615855565b60405180910390fd5b6000612fa28c60028f604051612f8691906152d1565b908152602001604051809103902061406990919063ffffffff16565b9050612fd48160028f604051612fb891906152d1565b908152602001604051809103902061417990919063ffffffff16565b5061302681600360008d73ffffffffffffffffffffffffffffffffffffffff1673ffffffffffffffffffffffffffffffffffffffff16815260200190815260200160002061417990919063ffffffff16565b507ffb7b19bfa271e285668048195eaddcadcbce46ed67e8e1320136d77eb0e290db8c8b6040516130589291906152e8565b60405180910390a150505050505050505050505050565b6005602052816000526040600020818154811061308b57600080fd5b906000526020600020016000915091505080546130a790615137565b80601f01602080910402602001604051908101604052809291908181526020018280546130d390615137565b80156131205780601f106130f557610100808354040283529160200191613120565b820191906000526020600020905b81548152906001019060200180831161310357829003601f168201915b505050505081565b600282805160208101820180518482526020830160208501208183528095505050505050818154811061315a57600080fd5b90600052602060002090600402016000915091505080600001805461317e90615137565b80601f01602080910402602001604051908101604052809291908181526020018280546131aa90615137565b80156131f75780601f106131cc576101008083540402835291602001916131f7565b820191906000526020600020905b8154815290600101906020018083116131da57829003601f168201915b50505050509080600101805461320c90615137565b80601f016020809104026020016040519081016040528092919081815260200182805461323890615137565b80156132855780601f1061325a57610100808354040283529160200191613285565b820191906000526020600020905b81548152906001019060200180831161326857829003601f168201915b5050505050908060020160009054906101000a900473ffffffffffffffffffffffffffffffffffffffff16908060030154905084565b600080600090505b835181101561330f576132f48482815181106132e2576132e1615266565b5b6020026020010151600001518461436a565b156133025780915050613334565b80806001019150506132c3565b507fffffffffffffffffffffffffffffffffffffffffffffffffffffffffffffffff90505b92915050565b6060600060048360405161334e91906152d1565b908152602001604051809103902090506000818054905067ffffffffffffffff81111561337e5761337d6145f8565b5b6040519080825280602002602001820160405280156133ac5781602001602082028036833780820191505090505b50905060005b8280549050811015613456578281815481106133d1576133d0615266565b5b9060005260206000200160009054906101000a900473ffffffffffffffffffffffffffffffffffffffff1682828151811061340f5761340e615266565b5b602002602001019073ffffffffffffffffffffffffffffffffffffffff16908173ffffffffffffffffffffffffffffffffffffffff168152505080806001019150506133b2565b508092505050919050565b600080600090505b83518110156134d5578273ffffffffffffffffffffffffffffffffffffffff1684828151811061349c5761349b615266565b5b602002602001015173ffffffffffffffffffffffffffffffffffffffff16036134c857809150506134fa565b8080600101915050613469565b507fffffffffffffffffffffffffffffffffffffffffffffffffffffffffffffffff90505b92915050565b60008280549050821261351257600080fd5b6000821215613556576040517f08c379a000000000000000000000000000000000000000000000000000000000815260040161354d906158c1565b60405180910390fd5b60008290505b6001848054905061356d91906156cd565b81101561362657836001826135829190615743565b8154811061359357613592615266565b5b9060005260206000200160009054906101000a900473ffffffffffffffffffffffffffffffffffffffff168482815481106135d1576135d0615266565b5b9060005260206000200160006101000a81548173ffffffffffffffffffffffffffffffffffffffff021916908373ffffffffffffffffffffffffffffffffffffffff160217905550808060010191505061355c565b5082805480613638576136376158e1565b5b6001900381819060005260206000200160006101000a81549073ffffffffffffffffffffffffffffffffffffffff021916905590556001905092915050565b600080600090505b83518110156136c7576136ac84828151811061369e5761369d615266565b5b60200260200101518461436a565b156136ba57809150506136ec565b808060010191505061367f565b507fffffffffffffffffffffffffffffffffffffffffffffffffffffffffffffffff90505b92915050565b60008280549050821261370457600080fd5b6000821215613748576040517f08c379a000000000000000000000000000000000000000000000000000000000815260040161373f906158c1565b60405180910390fd5b60008290505b6001848054905061375f91906156cd565b8110156137c657836001826137749190615743565b8154811061378557613784615266565b5b906000526020600020018482815481106137a2576137a1615266565b5b9060005260206000200190816137b8919061593b565b50808060010191505061374e565b50828054806137d8576137d76158e1565b5b6001900381819060005260206000200160006137f491906144a1565b90556001905092915050565b6060600060028360405161381491906152d1565b908152602001604051809103902090506000818054905067ffffffffffffffff811115613844576138436145f8565b5b60405190808252806020026020018201604052801561387d57816020015b61386a6144e1565b8152602001906001900390816138625790505b50905060005b8280549050811015613a6a578281815481106138a2576138a1615266565b5b90600052602060002090600402016040518060800160405290816000820180546138cb90615137565b80601f01602080910402602001604051908101604052809291908181526020018280546138f790615137565b80156139445780601f1061391957610100808354040283529160200191613944565b820191906000526020600020905b81548152906001019060200180831161392757829003601f168201915b5050505050815260200160018201805461395d90615137565b80601f016020809104026020016040519081016040528092919081815260200182805461398990615137565b80156139d65780601f106139ab576101008083540402835291602001916139d6565b820191906000526020600020905b8154815290600101906020018083116139b957829003601f168201915b505050505081526020016002820160009054906101000a900473ffffffffffffffffffffffffffffffffffffffff1673ffffffffffffffffffffffffffffffffffffffff1673ffffffffffffffffffffffffffffffffffffffff168152602001600382015481525050828281518110613a5257613a51615266565b5b60200260200101819052508080600101915050613883565b508092505050919050565b600082805490508212613a8757600080fd5b6000821215613acb576040517f08c379a0000000000000000000000000000000000000000000000000000000008152600401613ac2906158c1565b60405180910390fd5b60008290505b60018480549050613ae291906156cd565b811015613bcd5783600182613af79190615743565b81548110613b0857613b07615266565b5b9060005260206000209060030201848281548110613b2957613b28615266565b5b906000526020600020906003020160008201816000019081613b4b9190615a39565b506001820160009054906101000a900473ffffffffffffffffffffffffffffffffffffffff168160010160006101000a81548173ffffffffffffffffffffffffffffffffffffffff021916908373ffffffffffffffffffffffffffffffffffffffff160217905550600282015481600201559050508080600101915050613ad1565b5082805480613bdf57613bde6158e1565b5b600190038181906000526020600020906003020160008082016000613c0491906144a1565b6001820160006101000a81549073ffffffffffffffffffffffffffffffffffffffff02191690556002820160009055505090556001905092915050565b600081831015613c5357829050613c57565b8190505b92915050565b606060008383613c6d91906156cd565b67ffffffffffffffff811115613c8657613c856145f8565b5b604051908082528060200260200182016040528015613cbf57816020015b613cac61451f565b815260200190600190039081613ca45790505b50905060008490505b83811015613d2157858186613cdd9190615743565b81518110613cee57613ced615266565b5b6020026020010151828281518110613d0957613d08615266565b5b60200260200101819052508080600101915050613cc8565b50809150509392505050565b60606000825167ffffffffffffffff811115613d4c57613d4b6145f8565b5b604051908082528060200260200182016040528015613d8557816020015b613d7261451f565b815260200190600190039081613d6a5790505b50905060005b8351811015613df257838181518110613da757613da6615266565b5b6020026020010151828260018751613dbf91906156cd565b613dc991906156cd565b81518110613dda57613dd9615266565b5b60200260200101819052508080600101915050613d8b565b5080915050919050565b60606000828054905067ffffffffffffffff811115613e1e57613e1d6145f8565b5b604051908082528060200260200182016040528015613e5757816020015b613e446144e1565b815260200190600190039081613e3c5790505b50905060005b838054905081101561405f57838181548110613e7c57613e7b615266565b5b9060005260206000209060040201604051806080016040529081600082018054613ea590615137565b80601f0160208091040260200160405190810160405280929190818152602001828054613ed190615137565b8015613f1e5780601f10613ef357610100808354040283529160200191613f1e565b820191906000526020600020905b815481529060010190602001808311613f0157829003601f168201915b50505050508152602001600182018054613f3790615137565b80601f0160208091040260200160405190810160405280929190818152602001828054613f6390615137565b8015613fb05780601f10613f8557610100808354040283529160200191613fb0565b820191906000526020600020905b815481529060010190602001808311613f9357829003601f168201915b505050505081526020016002820160009054906101000a900473ffffffffffffffffffffffffffffffffffffffff1673ffffffffffffffffffffffffffffffffffffffff1673ffffffffffffffffffffffffffffffffffffffff16815260200160038201548152505082826001878054905061402c91906156cd565b61403691906156cd565b8151811061404757614046615266565b5b60200260200101819052508080600101915050613e5d565b5080915050919050565b600080600090505b838054905081101561414e5761413384828154811061409357614092615266565b5b906000526020600020906004020160000180546140af90615137565b80601f01602080910402602001604051908101604052809291908181526020018280546140db90615137565b80156141285780601f106140fd57610100808354040283529160200191614128565b820191906000526020600020905b81548152906001019060200180831161410b57829003601f168201915b50505050508461436a565b156141415780915050614173565b8080600101915050614071565b507fffffffffffffffffffffffffffffffffffffffffffffffffffffffffffffffff90505b92915050565b60008280549050821261418b57600080fd5b60008212156141cf576040517f08c379a00000000000000000000000000000000000000000000000000000000081526004016141c6906158c1565b60405180910390fd5b60008290505b600184805490506141e691906156cd565b8110156142e657836001826141fb9190615743565b8154811061420c5761420b615266565b5b906000526020600020906004020184828154811061422d5761422c615266565b5b90600052602060002090600402016000820181600001908161424f9190615a39565b50600182018160010190816142649190615a39565b506002820160009054906101000a900473ffffffffffffffffffffffffffffffffffffffff168160020160006101000a81548173ffffffffffffffffffffffffffffffffffffffff021916908373ffffffffffffffffffffffffffffffffffffffff1602179055506003820154816003015590505080806001019150506141d5565b50828054806142f8576142f76158e1565b5b60019003818190600052602060002090600402016000808201600061431d91906144a1565b60018201600061432d91906144a1565b6002820160006101000a81549073ffffffffffffffffffffffffffffffffffffffff02191690556003820160009055505090556001905092915050565b60008160405160200161437d91906152d1565b60405160208183030381529060405280519060200120836040516020016143a491906152d1565b6040516020818303038152906040528051906020012014905092915050565b8280548282559060005260206000209060030281019282156144905760005260206000209160030282015b8281111561448f5782826000820181600001908161440c9190615a39565b506001820160009054906101000a900473ffffffffffffffffffffffffffffffffffffffff168160010160006101000a81548173ffffffffffffffffffffffffffffffffffffffff021916908373ffffffffffffffffffffffffffffffffffffffff160217905550600282015481600201555050916003019190600301906143ee565b5b50905061449d9190614556565b5090565b5080546144ad90615137565b6000825580601f106144bf57506144de565b601f0160209004906000526020600020908101906144dd91906145ac565b5b50565b60405180608001604052806060815260200160608152602001600073ffffffffffffffffffffffffffffffffffffffff168152602001600081525090565b604051806060016040528060608152602001600073ffffffffffffffffffffffffffffffffffffffff168152602001600081525090565b5b808211156145a8576000808201600061457091906144a1565b6001820160006101000a81549073ffffffffffffffffffffffffffffffffffffffff0219169055600282016000905550600301614557565b5090565b5b808211156145c55760008160009055506001016145ad565b5090565b6000604051905090565b600080fd5b600080fd5b600080fd5b600080fd5b6000601f19601f8301169050919050565b7f4e487b7100000000000000000000000000000000000000000000000000000000600052604160045260246000fd5b614630826145e7565b810181811067ffffffffffffffff8211171561464f5761464e6145f8565b5b80604052505050565b60006146626145c9565b905061466e8282614627565b919050565b600067ffffffffffffffff82111561468e5761468d6145f8565b5b614697826145e7565b9050602081019050919050565b82818337600083830152505050565b60006146c66146c184614673565b614658565b9050828152602081018484840111156146e2576146e16145e2565b5b6146ed8482856146a4565b509392505050565b600082601f83011261470a576147096145dd565b5b813561471a8482602086016146b3565b91505092915050565b600073ffffffffffffffffffffffffffffffffffffffff82169050919050565b600061474e82614723565b9050919050565b61475e81614743565b811461476957600080fd5b50565b60008135905061477b81614755565b92915050565b60008060408385031215614798576147976145d3565b5b600083013567ffffffffffffffff8111156147b6576147b56145d8565b5b6147c2858286016146f5565b92505060206147d38582860161476c565b9150509250929050565b6000819050919050565b6147f0816147dd565b81146147fb57600080fd5b50565b60008135905061480d816147e7565b92915050565b600060208284031215614829576148286145d3565b5b6000614837848285016147fe565b91505092915050565b61484981614743565b82525050565b60006020820190506148646000830184614840565b92915050565b60008060408385031215614881576148806145d3565b5b600083013567ffffffffffffffff81111561489f5761489e6145d8565b5b6148ab858286016146f5565b92505060206148bc858286016147fe565b9150509250929050565b6000602082840312156148dc576148db6145d3565b5b600082013567ffffffffffffffff8111156148fa576148f96145d8565b5b614906848285016146f5565b91505092915050565b614918816147dd565b82525050565b6000602082019050614933600083018461490f565b92915050565b600080604083850312156149505761494f6145d3565b5b600061495e8582860161476c565b925050602061496f858286016147fe565b9150509250929050565b600081519050919050565b600082825260208201905092915050565b60005b838110156149b3578082015181840152602081019050614998565b60008484015250505050565b60006149ca82614979565b6149d48185614984565b93506149e4818560208601614995565b6149ed816145e7565b840191505092915050565b60006060820190508181036000830152614a1281866149bf565b9050614a216020830185614840565b614a2e604083018461490f565b949350505050565b60006080820190508181036000830152614a5081876149bf565b90508181036020830152614a6481866149bf565b9050614a736040830185614840565b614a80606083018461490f565b95945050505050565b600081519050919050565b600082825260208201905092915050565b6000819050602082019050919050565b614abe81614743565b82525050565b6000614ad08383614ab5565b60208301905092915050565b6000602082019050919050565b6000614af482614a89565b614afe8185614a94565b9350614b0983614aa5565b8060005b83811015614b3a578151614b218882614ac4565b9750614b2c83614adc565b925050600181019050614b0d565b5085935050505092915050565b60006020820190508181036000830152614b618184614ae9565b905092915050565b60008060008060808587031215614b8357614b826145d3565b5b600085013567ffffffffffffffff811115614ba157614ba06145d8565b5b614bad878288016146f5565b945050602085013567ffffffffffffffff811115614bce57614bcd6145d8565b5b614bda878288016146f5565b9350506040614beb8782880161476c565b9250506060614bfc878288016147fe565b91505092959194509250565b600080600060608486031215614c2157614c206145d3565b5b6000614c2f868287016147fe565b9350506020614c40868287016147fe565b9250506040614c518682870161476c565b9150509250925092565b600081519050919050565b600082825260208201905092915050565b6000819050602082019050919050565b600082825260208201905092915050565b6000614ca382614979565b614cad8185614c87565b9350614cbd818560208601614995565b614cc6816145e7565b840191505092915050565b614cda816147dd565b82525050565b60006060830160008301518482036000860152614cfd8282614c98565b9150506020830151614d126020860182614ab5565b506040830151614d256040860182614cd1565b508091505092915050565b6000614d3c8383614ce0565b905092915050565b6000602082019050919050565b6000614d5c82614c5b565b614d668185614c66565b935083602082028501614d7885614c77565b8060005b85811015614db45784840389528151614d958582614d30565b9450614da083614d44565b925060208a01995050600181019050614d7c565b50829750879550505050505092915050565b60006020820190508181036000830152614de08184614d51565b905092915050565b600060208284031215614dfe57614dfd6145d3565b5b6000614e0c8482850161476c565b91505092915050565b600081519050919050565b600082825260208201905092915050565b6000819050602082019050919050565b60006080830160008301518482036000860152614e5e8282614c98565b91505060208301518482036020860152614e788282614c98565b9150506040830151614e8d6040860182614ab5565b506060830151614ea06060860182614cd1565b508091505092915050565b6000614eb78383614e41565b905092915050565b6000602082019050919050565b6000614ed782614e15565b614ee18185614e20565b935083602082028501614ef385614e31565b8060005b85811015614f2f5784840389528151614f108582614eab565b9450614f1b83614ebf565b925060208a01995050600181019050614ef7565b50829750879550505050505092915050565b60006020820190508181036000830152614f5b8184614ecc565b905092915050565b600081519050919050565b600082825260208201905092915050565b6000819050602082019050919050565b6000614f9b8383614c98565b905092915050565b6000602082019050919050565b6000614fbb82614f63565b614fc58185614f6e565b935083602082028501614fd785614f7f565b8060005b858110156150135784840389528151614ff48582614f8f565b9450614fff83614fa3565b925060208a01995050600181019050614fdb565b50829750879550505050505092915050565b6000602082019050818103600083015261503f8184614fb0565b905092915050565b60008060008060808587031215615061576150606145d3565b5b600085013567ffffffffffffffff81111561507f5761507e6145d8565b5b61508b878288016146f5565b945050602085013567ffffffffffffffff8111156150ac576150ab6145d8565b5b6150b8878288016146f5565b93505060406150c98782880161476c565b92505060606150da8782880161476c565b91505092959194509250565b6000602082019050818103600083015261510081846149bf565b905092915050565b7f4e487b7100000000000000000000000000000000000000000000000000000000600052602260045260246000fd5b6000600282049050600182168061514f57607f821691505b60208210810361516257615161615108565b5b50919050565b7f506f737420646f6573206e6f7420657869737400000000000000000000000000600082015250565b600061519e601383614984565b91506151a982615168565b602082019050919050565b600060208201905081810360008301526151cd81615191565b9050919050565b7f4f6e6c7920706f7374206f776e65722063616e20646f2074686973206163746960008201527f6f6e000000000000000000000000000000000000000000000000000000000000602082015250565b6000615230602283614984565b915061523b826151d4565b604082019050919050565b6000602082019050818103600083015261525f81615223565b9050919050565b7f4e487b7100000000000000000000000000000000000000000000000000000000600052603260045260246000fd5b600081905092915050565b60006152ab82614979565b6152b58185615295565b93506152c5818560208601614995565b80840191505092915050565b60006152dd82846152a0565b915081905092915050565b6000604082019050818103600083015261530281856149bf565b90506153116020830184614840565b9392505050565b7f5573657220616c7265616479206c696b656420706f7374000000000000000000600082015250565b600061534e601783614984565b915061535982615318565b602082019050919050565b6000602082019050818103600083015261537d81615341565b9050919050565b60008190508160005260206000209050919050565b60006020601f8301049050919050565b600082821b905092915050565b6000600883026153e67fffffffffffffffffffffffffffffffffffffffffffffffffffffffffffffffff826153a9565b6153f086836153a9565b95508019841693508086168417925050509392505050565b6000819050919050565b600061542d615428615423846147dd565b615408565b6147dd565b9050919050565b6000819050919050565b61544783615412565b61545b61545382615434565b8484546153b6565b825550505050565b600090565b615470615463565b61547b81848461543e565b505050565b5b8181101561549f57615494600082615468565b600181019050615481565b5050565b601f8211156154e4576154b581615384565b6154be84615399565b810160208510156154cd578190505b6154e16154d985615399565b830182615480565b50505b505050565b600082821c905092915050565b6000615507600019846008026154e9565b1980831691505092915050565b600061552083836154f6565b9150826002028217905092915050565b61553982614979565b67ffffffffffffffff811115615552576155516145f8565b5b61555c8254615137565b6155678282856154a3565b600060209050601f83116001811461559a5760008415615588578287015190505b6155928582615514565b8655506155fa565b601f1984166155a886615384565b60005b828110156155d0578489015182556001820191506020850194506020810190506155ab565b868310156155ed57848901516155e9601f8916826154f6565b8355505b6001600288020188555050505b505050505050565b60006040820190506156176000830185614840565b818103602083015261562981846149bf565b90509392505050565b7f55736572206861736e2774206c696b656420706f737400000000000000000000600082015250565b6000615668601683614984565b915061567382615632565b602082019050919050565b600060208201905081810360008301526156978161565b565b9050919050565b7f4e487b7100000000000000000000000000000000000000000000000000000000600052601160045260246000fd5b60006156d8826147dd565b91506156e3836147dd565b92508282039050818111156156fb576156fa61569e565b5b92915050565b600061570c826147dd565b9150615717836147dd565b9250828202615725816147dd565b9150828204841483151761573c5761573b61569e565b5b5092915050565b600061574e826147dd565b9150615759836147dd565b92508282019050808211156157715761577061569e565b5b92915050565b7f436f6d6d656e7420646f6573206e6f7420657869737400000000000000000000600082015250565b60006157ad601683614984565b91506157b882615777565b602082019050919050565b600060208201905081810360008301526157dc816157a0565b9050919050565b7f4f6e6c7920636f6d6d656e74206f7220706f7374206f776e65722063616e206460008201527f6f207468697320616374696f6e00000000000000000000000000000000000000602082015250565b600061583f602d83614984565b915061584a826157e3565b604082019050919050565b6000602082019050818103600083015261586e81615832565b9050919050565b7f456c656d656e7420646f65736e27742065786973740000000000000000000000600082015250565b60006158ab601583614984565b91506158b682615875565b602082019050919050565b600060208201905081810360008301526158da8161589e565b9050919050565b7f4e487b7100000000000000000000000000000000000000000000000000000000600052603160045260246000fd5b60008154905061591f81615137565b9050919050565b60008190508160005260206000209050919050565b818103615949575050615a21565b61595282615910565b67ffffffffffffffff81111561596b5761596a6145f8565b5b6159758254615137565b6159808282856154a3565b6000601f8311600181146159af576000841561599d578287015490505b6159a78582615514565b865550615a1a565b601f1984166159bd87615926565b96506159c886615384565b60005b828110156159f0578489015482556001820191506001850194506020810190506159cb565b86831015615a0d5784890154615a09601f8916826154f6565b8355505b6001600288020188555050505b5050505050505b565b600081549050615a3281615137565b9050919050565b818103615a47575050615b1f565b615a5082615a23565b67ffffffffffffffff811115615a6957615a686145f8565b5b615a738254615137565b615a7e8282856154a3565b6000601f831160018114615aad5760008415615a9b578287015490505b615aa58582615514565b865550615b18565b601f198416615abb87615384565b9650615ac686615384565b60005b82811015615aee57848901548255600182019150600185019450602081019050615ac9565b86831015615b0b5784890154615b07601f8916826154f6565b8355505b6001600288020188555050505b5050505050505b56fea26469706673582212204fa10cb77770cd33448aa7103ad203c477ffa546eb794a005807ce59eafb337a64736f6c634300081c0033",
  "linkReferences": {},
  "deployedLinkReferences": {}
}