{
  "_format": "hh-sol-artifact-1",
  "contractName": "DecentralisedBlog",
  "sourceName": "contracts/DecentralisedBlog.sol",
  "abi": [
    {
      "anonymous": false,
      "inputs": [
        {
          "indexed": true,
          "internalType": "uint256",
          "name": "commentId",
          "type": "uint256"
        },
        {
          "indexed": true,
          "internalType": "uint256",
          "name": "postId",
          "type": "uint256"
        },
        {
          "indexed": false,
          "internalType": "address",
          "name": "commenter",
          "type": "address"
        },
        {
          "indexed": false,
          "internalType": "string",
          "name": "cid",
          "type": "string"
        }
      ],
      "name": "CommentAdded",
      "type": "event"
    },
    {
      "anonymous": false,
      "inputs": [
        {
          "indexed": true,
          "internalType": "uint256",
          "name": "commentId",
          "type": "uint256"
        }
      ],
      "name": "CommentDeleted",
      "type": "event"
    },
    {
      "anonymous": false,
      "inputs": [
        {
          "indexed": true,
          "internalType": "address",
          "name": "follower",
          "type": "address"
        },
        {
          "indexed": true,
          "internalType": "address",
          "name": "following",
          "type": "address"
        }
      ],
      "name": "Followed",
      "type": "event"
    },
    {
      "anonymous": false,
      "inputs": [
        {
          "indexed": true,
          "internalType": "uint256",
          "name": "postId",
          "type": "uint256"
        },
        {
          "indexed": true,
          "internalType": "address",
          "name": "bookmarker",
          "type": "address"
        }
      ],
      "name": "PostBookmarked",
      "type": "event"
    },
    {
      "anonymous": false,
      "inputs": [
        {
          "indexed": true,
          "internalType": "uint256",
          "name": "postId",
          "type": "uint256"
        },
        {
          "indexed": true,
          "internalType": "address",
          "name": "author",
          "type": "address"
        },
        {
          "indexed": false,
          "internalType": "string",
          "name": "cid",
          "type": "string"
        },
        {
          "indexed": false,
          "internalType": "string",
          "name": "title",
          "type": "string"
        }
      ],
      "name": "PostCreated",
      "type": "event"
    },
    {
      "anonymous": false,
      "inputs": [
        {
          "indexed": true,
          "internalType": "uint256",
          "name": "postId",
          "type": "uint256"
        }
      ],
      "name": "PostDeleted",
      "type": "event"
    },
    {
      "anonymous": false,
      "inputs": [
        {
          "indexed": true,
          "internalType": "uint256",
          "name": "postId",
          "type": "uint256"
        },
        {
          "indexed": true,
          "internalType": "address",
          "name": "liker",
          "type": "address"
        }
      ],
      "name": "PostLiked",
      "type": "event"
    },
    {
      "anonymous": false,
      "inputs": [
        {
          "indexed": true,
          "internalType": "uint256",
          "name": "postId",
          "type": "uint256"
        },
        {
          "indexed": true,
          "internalType": "address",
          "name": "unbookmarker",
          "type": "address"
        }
      ],
      "name": "PostUnbookmarked",
      "type": "event"
    },
    {
      "anonymous": false,
      "inputs": [
        {
          "indexed": true,
          "internalType": "uint256",
          "name": "postId",
          "type": "uint256"
        },
        {
          "indexed": true,
          "internalType": "address",
          "name": "unliker",
          "type": "address"
        }
      ],
      "name": "PostUnliked",
      "type": "event"
    },
    {
      "anonymous": false,
      "inputs": [
        {
          "indexed": true,
          "internalType": "address",
          "name": "user",
          "type": "address"
        },
        {
          "indexed": false,
          "internalType": "string",
          "name": "username",
          "type": "string"
        },
        {
          "indexed": false,
          "internalType": "string",
          "name": "bio",
          "type": "string"
        },
        {
          "indexed": false,
          "internalType": "string",
          "name": "imageCID",
          "type": "string"
        }
      ],
      "name": "ProfileUpdated",
      "type": "event"
    },
    {
      "anonymous": false,
      "inputs": [
        {
          "indexed": true,
          "internalType": "uint256",
          "name": "postId",
          "type": "uint256"
        },
        {
          "indexed": false,
          "internalType": "string",
          "name": "tag",
          "type": "string"
        }
      ],
      "name": "TagAdded",
      "type": "event"
    },
    {
      "anonymous": false,
      "inputs": [
        {
          "indexed": true,
          "internalType": "address",
          "name": "from",
          "type": "address"
        },
        {
          "indexed": true,
          "internalType": "address",
          "name": "to",
          "type": "address"
        },
        {
          "indexed": false,
          "internalType": "uint256",
          "name": "amount",
          "type": "uint256"
        }
      ],
      "name": "Tipped",
      "type": "event"
    },
    {
      "anonymous": false,
      "inputs": [
        {
          "indexed": true,
          "internalType": "address",
          "name": "follower",
          "type": "address"
        },
        {
          "indexed": true,
          "internalType": "address",
          "name": "following",
          "type": "address"
        }
      ],
      "name": "Unfollowed",
      "type": "event"
    },
    {
      "inputs": [
        {
          "internalType": "uint256",
          "name": "postId",
          "type": "uint256"
        },
        {
          "internalType": "string",
          "name": "cid",
          "type": "string"
        }
      ],
      "name": "addComment",
      "outputs": [],
      "stateMutability": "nonpayable",
      "type": "function"
    },
    {
      "inputs": [
        {
          "internalType": "uint256",
          "name": "postId",
          "type": "uint256"
        }
      ],
      "name": "bookmark",
      "outputs": [],
      "stateMutability": "nonpayable",
      "type": "function"
    },
    {
      "inputs": [
        {
          "internalType": "uint256",
          "name": "",
          "type": "uint256"
        },
        {
          "internalType": "address",
          "name": "",
          "type": "address"
        }
      ],
      "name": "bookmarks",
      "outputs": [
        {
          "internalType": "bool",
          "name": "",
          "type": "bool"
        }
      ],
      "stateMutability": "view",
      "type": "function"
    },
    {
      "inputs": [
        {
          "internalType": "uint256",
          "name": "",
          "type": "uint256"
        }
      ],
      "name": "comments",
      "outputs": [
        {
          "internalType": "uint256",
          "name": "id",
          "type": "uint256"
        },
        {
          "internalType": "uint256",
          "name": "postId",
          "type": "uint256"
        },
        {
          "internalType": "address",
          "name": "commenter",
          "type": "address"
        },
        {
          "internalType": "string",
          "name": "cid",
          "type": "string"
        },
        {
          "internalType": "uint256",
          "name": "timestamp",
          "type": "uint256"
        },
        {
          "internalType": "bool",
          "name": "isDeleted",
          "type": "bool"
        },
        {
          "internalType": "bool",
          "name": "exists",
          "type": "bool"
        }
      ],
      "stateMutability": "view",
      "type": "function"
    },
    {
      "inputs": [
        {
          "internalType": "string",
          "name": "cid",
          "type": "string"
        },
        {
          "internalType": "string[]",
          "name": "tags",
          "type": "string[]"
        },
        {
          "internalType": "string[]",
          "name": "imageCIDs",
          "type": "string[]"
        },
        {
          "internalType": "string",
          "name": "title",
          "type": "string"
        }
      ],
      "name": "createPost",
      "outputs": [],
      "stateMutability": "nonpayable",
      "type": "function"
    },
    {
      "inputs": [
        {
          "internalType": "uint256",
          "name": "commentId",
          "type": "uint256"
        }
      ],
      "name": "deleteComment",
      "outputs": [],
      "stateMutability": "nonpayable",
      "type": "function"
    },
    {
      "inputs": [
        {
          "internalType": "uint256",
          "name": "postId",
          "type": "uint256"
        }
      ],
      "name": "deletePost",
      "outputs": [],
      "stateMutability": "nonpayable",
      "type": "function"
    },
    {
      "inputs": [
        {
          "internalType": "address",
          "name": "userToFollow",
          "type": "address"
        }
      ],
      "name": "follow",
      "outputs": [],
      "stateMutability": "nonpayable",
      "type": "function"
    },
    {
      "inputs": [
        {
          "internalType": "address",
          "name": "",
          "type": "address"
        }
      ],
      "name": "followerCount",
      "outputs": [
        {
          "internalType": "uint256",
          "name": "",
          "type": "uint256"
        }
      ],
      "stateMutability": "view",
      "type": "function"
    },
    {
      "inputs": [
        {
          "internalType": "address",
          "name": "",
          "type": "address"
        }
      ],
      "name": "followingCount",
      "outputs": [
        {
          "internalType": "uint256",
          "name": "",
          "type": "uint256"
        }
      ],
      "stateMutability": "view",
      "type": "function"
    },
    {
      "inputs": [
        {
          "internalType": "uint256",
          "name": "count",
          "type": "uint256"
        }
      ],
      "name": "getLatestPostIds",
      "outputs": [
        {
          "internalType": "uint256[]",
          "name": "",
          "type": "uint256[]"
        }
      ],
      "stateMutability": "view",
      "type": "function"
    },
    {
      "inputs": [
        {
          "internalType": "uint256[]",
          "name": "postIds",
          "type": "uint256[]"
        }
      ],
      "name": "getManyPosts",
      "outputs": [
        {
          "components": [
            {
              "internalType": "uint256",
              "name": "id",
              "type": "uint256"
            },
            {
              "internalType": "address",
              "name": "author",
              "type": "address"
            },
            {
              "internalType": "string",
              "name": "cid",
              "type": "string"
            },
            {
              "internalType": "uint256",
              "name": "timestamp",
              "type": "uint256"
            },
            {
              "internalType": "uint256",
              "name": "likes",
              "type": "uint256"
            },
            {
              "internalType": "uint256",
              "name": "bookmarks",
              "type": "uint256"
            },
            {
              "internalType": "string[]",
              "name": "imageCIDs",
              "type": "string[]"
            },
            {
              "internalType": "string[]",
              "name": "tags",
              "type": "string[]"
            },
            {
              "internalType": "bool",
              "name": "isDeleted",
              "type": "bool"
            },
            {
              "internalType": "bool",
              "name": "exists",
              "type": "bool"
            }
          ],
          "internalType": "struct DecentralisedBlog.Post[]",
          "name": "",
          "type": "tuple[]"
        }
      ],
      "stateMutability": "view",
      "type": "function"
    },
    {
      "inputs": [
        {
          "internalType": "uint256",
          "name": "postId",
          "type": "uint256"
        }
      ],
      "name": "getPostById",
      "outputs": [
        {
          "components": [
            {
              "internalType": "uint256",
              "name": "id",
              "type": "uint256"
            },
            {
              "internalType": "address",
              "name": "author",
              "type": "address"
            },
            {
              "internalType": "string",
              "name": "cid",
              "type": "string"
            },
            {
              "internalType": "uint256",
              "name": "timestamp",
              "type": "uint256"
            },
            {
              "internalType": "uint256",
              "name": "likes",
              "type": "uint256"
            },
            {
              "internalType": "uint256",
              "name": "bookmarks",
              "type": "uint256"
            },
            {
              "internalType": "string[]",
              "name": "imageCIDs",
              "type": "string[]"
            },
            {
              "internalType": "string[]",
              "name": "tags",
              "type": "string[]"
            },
            {
              "internalType": "bool",
              "name": "isDeleted",
              "type": "bool"
            },
            {
              "internalType": "bool",
              "name": "exists",
              "type": "bool"
            }
          ],
          "internalType": "struct DecentralisedBlog.Post",
          "name": "",
          "type": "tuple"
        }
      ],
      "stateMutability": "view",
      "type": "function"
    },
    {
      "inputs": [
        {
          "internalType": "uint256",
          "name": "offset",
          "type": "uint256"
        },
        {
          "internalType": "uint256",
          "name": "limit",
          "type": "uint256"
        }
      ],
      "name": "getPostIdsPaginated",
      "outputs": [
        {
          "internalType": "uint256[]",
          "name": "",
          "type": "uint256[]"
        }
      ],
      "stateMutability": "view",
      "type": "function"
    },
    {
      "inputs": [
        {
          "internalType": "address",
          "name": "author",
          "type": "address"
        }
      ],
      "name": "getPostsByAuthor",
      "outputs": [
        {
          "internalType": "uint256[]",
          "name": "",
          "type": "uint256[]"
        }
      ],
      "stateMutability": "view",
      "type": "function"
    },
    {
      "inputs": [
        {
          "internalType": "address",
          "name": "",
          "type": "address"
        },
        {
          "internalType": "address",
          "name": "",
          "type": "address"
        }
      ],
      "name": "isFollowing",
      "outputs": [
        {
          "internalType": "bool",
          "name": "",
          "type": "bool"
        }
      ],
      "stateMutability": "view",
      "type": "function"
    },
    {
      "inputs": [
        {
          "internalType": "uint256",
          "name": "postId",
          "type": "uint256"
        }
      ],
      "name": "like",
      "outputs": [],
      "stateMutability": "nonpayable",
      "type": "function"
    },
    {
      "inputs": [
        {
          "internalType": "uint256",
          "name": "",
          "type": "uint256"
        },
        {
          "internalType": "address",
          "name": "",
          "type": "address"
        }
      ],
      "name": "likes",
      "outputs": [
        {
          "internalType": "bool",
          "name": "",
          "type": "bool"
        }
      ],
      "stateMutability": "view",
      "type": "function"
    },
    {
      "inputs": [],
      "name": "nextCommentId",
      "outputs": [
        {
          "internalType": "uint256",
          "name": "",
          "type": "uint256"
        }
      ],
      "stateMutability": "view",
      "type": "function"
    },
    {
      "inputs": [],
      "name": "nextPostId",
      "outputs": [
        {
          "internalType": "uint256",
          "name": "",
          "type": "uint256"
        }
      ],
      "stateMutability": "view",
      "type": "function"
    },
    {
      "inputs": [
        {
          "internalType": "uint256",
          "name": "",
          "type": "uint256"
        },
        {
          "internalType": "uint256",
          "name": "",
          "type": "uint256"
        }
      ],
      "name": "postComments",
      "outputs": [
        {
          "internalType": "uint256",
          "name": "",
          "type": "uint256"
        }
      ],
      "stateMutability": "view",
      "type": "function"
    },
    {
      "inputs": [
        {
          "internalType": "uint256",
          "name": "",
          "type": "uint256"
        }
      ],
      "name": "posts",
      "outputs": [
        {
          "internalType": "uint256",
          "name": "id",
          "type": "uint256"
        },
        {
          "internalType": "address",
          "name": "author",
          "type": "address"
        },
        {
          "internalType": "string",
          "name": "cid",
          "type": "string"
        },
        {
          "internalType": "uint256",
          "name": "timestamp",
          "type": "uint256"
        },
        {
          "internalType": "uint256",
          "name": "likes",
          "type": "uint256"
        },
        {
          "internalType": "uint256",
          "name": "bookmarks",
          "type": "uint256"
        },
        {
          "internalType": "bool",
          "name": "isDeleted",
          "type": "bool"
        },
        {
          "internalType": "bool",
          "name": "exists",
          "type": "bool"
        }
      ],
      "stateMutability": "view",
      "type": "function"
    },
    {
      "inputs": [
        {
          "internalType": "address",
          "name": "",
          "type": "address"
        }
      ],
      "name": "profiles",
      "outputs": [
        {
          "internalType": "string",
          "name": "username",
          "type": "string"
        },
        {
          "internalType": "string",
          "name": "bio",
          "type": "string"
        },
        {
          "internalType": "string",
          "name": "imageCID",
          "type": "string"
        },
        {
          "internalType": "bool",
          "name": "exists",
          "type": "bool"
        }
      ],
      "stateMutability": "view",
      "type": "function"
    },
    {
      "inputs": [
        {
          "internalType": "address",
          "name": "",
          "type": "address"
        }
      ],
      "name": "reputation",
      "outputs": [
        {
          "internalType": "uint256",
          "name": "",
          "type": "uint256"
        }
      ],
      "stateMutability": "view",
      "type": "function"
    },
    {
      "inputs": [
        {
          "internalType": "uint256",
          "name": "postId",
          "type": "uint256"
        }
      ],
      "name": "tipAuthor",
      "outputs": [],
      "stateMutability": "payable",
      "type": "function"
    },
    {
      "inputs": [
        {
          "internalType": "uint256",
          "name": "postId",
          "type": "uint256"
        }
      ],
      "name": "unbookmark",
      "outputs": [],
      "stateMutability": "nonpayable",
      "type": "function"
    },
    {
      "inputs": [
        {
          "internalType": "address",
          "name": "userToUnfollow",
          "type": "address"
        }
      ],
      "name": "unfollow",
      "outputs": [],
      "stateMutability": "nonpayable",
      "type": "function"
    },
    {
      "inputs": [
        {
          "internalType": "uint256",
          "name": "postId",
          "type": "uint256"
        }
      ],
      "name": "unlike",
      "outputs": [],
      "stateMutability": "nonpayable",
      "type": "function"
    },
    {
      "inputs": [
        {
          "internalType": "string",
          "name": "username",
          "type": "string"
        },
        {
          "internalType": "string",
          "name": "bio",
          "type": "string"
        },
        {
          "internalType": "string",
          "name": "imageCID",
          "type": "string"
        }
      ],
      "name": "updateProfile",
      "outputs": [],
      "stateMutability": "nonpayable",
      "type": "function"
    },
    {
      "inputs": [
        {
          "internalType": "address",
          "name": "",
          "type": "address"
        },
        {
          "internalType": "uint256",
          "name": "",
          "type": "uint256"
        }
      ],
      "name": "userPosts",
      "outputs": [
        {
          "internalType": "uint256",
          "name": "",
          "type": "uint256"
        }
      ],
      "stateMutability": "view",
      "type": "function"
    }
  ],
  "bytecode": "0x6080604052348015600f57600080fd5b50612f9d8061001f6000396000f3fe6080604052600436106101cd5760003560e01c80637d71285e116100f7578063b9f7945111610095578063cfb9d2e211610064578063cfb9d2e2146105fa578063d0bdacbe1461061a578063e82935da14610630578063f4ab24991461065057600080fd5b8063b9f7945114610550578063bbe156271461057d578063ca832cdd146105ad578063cd1d8e1a146105da57600080fd5b80638ebb4c15116100d15780638ebb4c15146104af57806395f41b4d146104e257806399ec3a42146104f5578063aa7e56831461053057600080fd5b80637d71285e146104345780638064d14914610454578063833472141461047457600080fd5b80635193c94c1161016f578063645487071161013e578063645487071461039a57806364e95895146103c757806374d21ae0146103f45780637d0b10261461041457600080fd5b80635193c94c146102ec578063554aed0c1461030c5780635c09bd98146103395780635c12c0771461034f57600080fd5b80631105a5eb116101ab5780631105a5eb146102515780632c8932761461027157806330b3a890146102915780634dbf27cc146102cc57600080fd5b8063015a4ead146101d2578063094cd5ee146101f45780630b1e7f8314610214575b600080fd5b3480156101de57600080fd5b506101f26101ed3660046124a2565b610670565b005b34801561020057600080fd5b506101f261020f3660046124c4565b610775565b34801561022057600080fd5b5061023461022f3660046124c4565b61084e565b604051610248989796959493929190612523565b60405180910390f35b34801561025d57600080fd5b506101f261026c3660046125c5565b610929565b34801561027d57600080fd5b506101f261028c3660046124c4565b610a96565b34801561029d57600080fd5b506102be6102ac3660046124a2565b60096020526000908152604090205481565b604051908152602001610248565b3480156102d857600080fd5b506101f26102e73660046124a2565b610b64565b3480156102f857600080fd5b506102be610307366004612668565b610cbd565b34801561031857600080fd5b5061032c6103273660046124c4565b610cee565b604051610248919061268a565b34801561034557600080fd5b506102be60005481565b34801561035b57600080fd5b5061038a61036a3660046126cd565b600660209081526000928352604080842090915290825290205460ff1681565b6040519015158152602001610248565b3480156103a657600080fd5b506102be6103b53660046124a2565b600a6020526000908152604090205481565b3480156103d357600080fd5b506103e76103e23660046124c4565b610e53565b6040516102489190612810565b34801561040057600080fd5b506101f261040f3660046124c4565b61111b565b34801561042057600080fd5b506101f261042f3660046124c4565b6111e4565b34801561044057600080fd5b506101f261044f3660046124c4565b611318565b34801561046057600080fd5b506102be61046f366004612823565b611444565b34801561048057600080fd5b5061038a61048f3660046126cd565b600760209081526000928352604080842090915290825290205460ff1681565b3480156104bb57600080fd5b506104cf6104ca3660046124c4565b611460565b604051610248979695949392919061284d565b6101f26104f03660046124c4565b611536565b34801561050157600080fd5b5061038a61051036600461289b565b600860209081526000928352604080842090915290825290205460ff1681565b34801561053c57600080fd5b506101f261054b3660046128c5565b6116a7565b34801561055c57600080fd5b506102be61056b3660046124a2565b600b6020526000908152604090205481565b34801561058957600080fd5b5061059d6105983660046124a2565b611887565b6040516102489493929190612910565b3480156105b957600080fd5b506105cd6105c83660046129a1565b611a4a565b60405161024891906129e2565b3480156105e657600080fd5b5061032c6105f5366004612668565b611db9565b34801561060657600080fd5b506101f2610615366004612a47565b611f44565b34801561062657600080fd5b506102be60015481565b34801561063c57600080fd5b506101f261064b3660046124c4565b6121ce565b34801561065c57600080fd5b5061032c61066b3660046124a2565b6122f5565b3360009081526008602090815260408083206001600160a01b038516845290915290205460ff166106d95760405162461bcd60e51b815260206004820152600e60248201526d4e6f7420666f6c6c6f77696e672160901b60448201526064015b60405180910390fd5b3360009081526008602090815260408083206001600160a01b03851684528252808320805460ff191690556009909152812080549161071783612b30565b9091555050336000908152600a6020526040812080549161073783612b30565b90915550506040516001600160a01b0382169033907f25b48012798806863072289354ed0b3849b73152482d9c6694e5cbb35f38d5e390600090a350565b60008181526002602052604090206001015481906001600160a01b031633146107d15760405162461bcd60e51b815260206004820152600e60248201526d2737ba103a34329030baba3437b960911b60448201526064016106d0565b600082815260026020526040902060080154610100900460ff166108075760405162461bcd60e51b81526004016106d090612b47565b600082815260026020526040808220600801805460ff191660011790555183917f32d67e2131cd025eb20e7256680e338dedbe17b28943a11681860a9271ad119d91a25050565b600260208190526000918252604090912080546001820154928201805491936001600160a01b0316929161088190612b73565b80601f01602080910402602001604051908101604052809291908181526020018280546108ad90612b73565b80156108fa5780601f106108cf576101008083540402835291602001916108fa565b820191906000526020600020905b8154815290600101906020018083116108dd57829003601f168201915b505050506003830154600484015460058501546008909501549394919390925060ff8082169161010090041688565b604051806080016040528087878080601f016020809104026020016040519081016040528093929190818152602001838380828437600092019190915250505090825250604080516020601f880181900481028201810190925286815291810191908790879081908401838280828437600092019190915250505090825250604080516020601f86018190048102820181019092528481529181019190859085908190840183828082843760009201829052509385525050600160209384015250338152600c9091526040902081518190610a049082612c12565b5060208201516001820190610a199082612c12565b5060408201516002820190610a2e9082612c12565b50606091909101516003909101805460ff191691151591909117905560405133907f6420daf1b58438e85465ef21dee378d307a509caab491149e3f066c5caf1266d90610a8690899089908990899089908990612cf9565b60405180910390a2505050505050565b600081815260076020908152604080832033845290915290205460ff16610af55760405162461bcd60e51b81526020600482015260136024820152724e6f7420626f6f6b6d61726b6564207965742160681b60448201526064016106d0565b60008181526007602090815260408083203384528252808320805460ff1916905583835260029091528120600501805491610b2f83612b30565b9091555050604051339082907fced93166cc6d38ad3460edd44b8664c0dd1e313900f5bcff71ab7315df97b0bd90600090a350565b336001600160a01b03821603610bb55760405162461bcd60e51b815260206004820152601660248201527543616e277420666f6c6c6f7720796f757273656c662160501b60448201526064016106d0565b3360009081526008602090815260408083206001600160a01b038516845290915290205460ff1615610c1e5760405162461bcd60e51b8152602060048201526012602482015271416c726561647920666f6c6c6f77696e672160701b60448201526064016106d0565b3360009081526008602090815260408083206001600160a01b03851684528252808320805460ff1916600117905560099091528120805491610c5f83612d42565b9091555050336000908152600a60205260408120805491610c7f83612d42565b90915550506040516001600160a01b0382169033907f6178e95c138f06036cdc07a49ed6a3d23008969fa143baeceb037ebae22e8d1490600090a350565b60056020528160005260406000208181548110610cd957600080fd5b90600052602060002001600091509150505481565b6000805460609180846001600160401b03811115610d0e57610d0e612bad565b604051908082528060200260200182016040528015610d37578160200160208202803683370190505b509050825b600081118015610d4b57508583105b15610db8576000610d5d600183612d5b565b60008181526002602052604090206008015490915060ff16610da55780838581518110610d8c57610d8c612d6e565b602090810291909101015283610da181612d42565b9450505b5080610db081612b30565b915050610d3c565b506000826001600160401b03811115610dd357610dd3612bad565b604051908082528060200260200182016040528015610dfc578160200160208202803683370190505b50905060005b83811015610e4957828181518110610e1c57610e1c612d6e565b6020026020010151828281518110610e3657610e36612d6e565b6020908102919091010152600101610e02565b5095945050505050565b610e5b612361565b6000828152600260208181526040928390208351610140810185528154815260018201546001600160a01b03169281019290925291820180549193840191610ea290612b73565b80601f0160208091040260200160405190810160405280929190818152602001828054610ece90612b73565b8015610f1b5780601f10610ef057610100808354040283529160200191610f1b565b820191906000526020600020905b815481529060010190602001808311610efe57829003601f168201915b5050505050815260200160038201548152602001600482015481526020016005820154815260200160068201805480602002602001604051908101604052809291908181526020016000905b82821015611013578382906000526020600020018054610f8690612b73565b80601f0160208091040260200160405190810160405280929190818152602001828054610fb290612b73565b8015610fff5780601f10610fd457610100808354040283529160200191610fff565b820191906000526020600020905b815481529060010190602001808311610fe257829003601f168201915b505050505081526020019060010190610f67565b50505050815260200160078201805480602002602001604051908101604052809291908181526020016000905b828210156110ec57838290600052602060002001805461105f90612b73565b80601f016020809104026020016040519081016040528092919081815260200182805461108b90612b73565b80156110d85780601f106110ad576101008083540402835291602001916110d8565b820191906000526020600020905b8154815290600101906020018083116110bb57829003601f168201915b505050505081526020019060010190611040565b505050908252506008919091015460ff8082161515602084015261010090910416151560409091015292915050565b600081815260066020908152604080832033845290915290205460ff166111755760405162461bcd60e51b815260206004820152600e60248201526d4e6f74206c696b6564207965742160901b60448201526064016106d0565b60008181526006602090815260408083203384528252808320805460ff19169055838352600290915281206004018054916111af83612b30565b9091555050604051339082907f82092d1196022c48d901e5dc4b17451dbce942b8a9ded42fc6f2a4a5e8fd89b990600090a350565b60008181526004602052604090206005810154610100900460ff166112435760405162461bcd60e51b815260206004820152601560248201527410dbdb5b595b9d08191bd95cdb89dd08195e1a5cdd605a1b60448201526064016106d0565b60028101546001600160a01b031633146112935760405162461bcd60e51b81526020600482015260116024820152704e6f7420796f757220636f6d6d656e742160781b60448201526064016106d0565b600581015460ff16156112da5760405162461bcd60e51b815260206004820152600f60248201526e105b1c9958591e4819195b195d1959608a1b60448201526064016106d0565b60058101805460ff1916600117905560405182907fb56539a3b332b00ffce8c0f70bfb1813db25879d5c24012911a39c74ddab8f9890600090a25050565b600081815260026020526040902060080154610100900460ff1661134e5760405162461bcd60e51b81526004016106d090612b47565b600081815260076020908152604080832033845290915290205460ff16156113ad5760405162461bcd60e51b8152602060048201526012602482015271105b1c9958591e48189bdbdadb585c9ad95960721b60448201526064016106d0565b60008181526007602090815260408083203384528252808320805460ff19166001179055838352600290915281206005018054916113ea83612d42565b9091555050336000908152600b6020526040812080546001929061140f908490612d84565b9091555050604051339082907fa1a96af0df8b295a8060763a566b43be73c385d07b56ce97a28d62a7ef6b616990600090a350565b60036020528160005260406000208181548110610cd957600080fd5b6004602052600090815260409020805460018201546002830154600384018054939492936001600160a01b03909216929161149a90612b73565b80601f01602080910402602001604051908101604052809291908181526020018280546114c690612b73565b80156115135780601f106114e857610100808354040283529160200191611513565b820191906000526020600020905b8154815290600101906020018083116114f657829003601f168201915b50505050600483015460059093015491929160ff80821692506101009091041687565b6000818152600260205260409020600101546001600160a01b03168061158f5760405162461bcd60e51b815260206004820152600e60248201526d24b73b30b634b21030baba3437b960911b60448201526064016106d0565b600034116115cd5760405162461bcd60e51b815260206004820152600b60248201526a139bc81d1a5c081cd95b9d60aa1b60448201526064016106d0565b6000816001600160a01b03163460405160006040518083038185875af1925050503d806000811461161a576040519150601f19603f3d011682016040523d82523d6000602084013e61161f565b606091505b50509050806116625760405162461bcd60e51b815260206004820152600f60248201526e151c985b9cd9995c8819985a5b1959608a1b60448201526064016106d0565b6040513481526001600160a01b0383169033907f91d9aec1bf873fb589194ec67c304522c89e9e1de41ed647cf135fb41226befc9060200160405180910390a3505050565b600083815260026020526040902060080154610100900460ff166116dd5760405162461bcd60e51b81526004016106d090612b47565b6040518060e001604052806001548152602001848152602001336001600160a01b0316815260200183838080601f0160208091040260200160405190810160405280939291908181526020018383808284376000920182905250938552505042602080850191909152604080850184905260016060958601819052805485526004835293819020865181559186015193820193909355918401516002830180546001600160a01b0319166001600160a01b03909216919091179055509082015160038201906117ac9082612c12565b506080820151600482015560a08201516005918201805460c09094015115156101000261ff00199215159290921661ffff19909416939093171790915560008481526020918252604080822060018054825491820183559184528484200155338252600b909252908120805460039290611827908490612d84565b92505081905550826001547f96d81cac001a263174d42d42cfad470fec9d863bcf6d52ba8b93d47c7ee00de333858560405161186593929190612d97565b60405180910390a36001805490600061187d83612d42565b9190505550505050565b600c602052600090815260409020805481906118a290612b73565b80601f01602080910402602001604051908101604052809291908181526020018280546118ce90612b73565b801561191b5780601f106118f05761010080835404028352916020019161191b565b820191906000526020600020905b8154815290600101906020018083116118fe57829003601f168201915b50505050509080600101805461193090612b73565b80601f016020809104026020016040519081016040528092919081815260200182805461195c90612b73565b80156119a95780601f1061197e576101008083540402835291602001916119a9565b820191906000526020600020905b81548152906001019060200180831161198c57829003601f168201915b5050505050908060020180546119be90612b73565b80601f01602080910402602001604051908101604052809291908181526020018280546119ea90612b73565b8015611a375780601f10611a0c57610100808354040283529160200191611a37565b820191906000526020600020905b815481529060010190602001808311611a1a57829003601f168201915b5050506003909301549192505060ff1684565b60606000826001600160401b03811115611a6657611a66612bad565b604051908082528060200260200182016040528015611a9f57816020015b611a8c612361565b815260200190600190039081611a845790505b50905060005b83811015611daf5760026000868684818110611ac357611ac3612d6e565b602090810292909201358352508181019290925260409081016000208151610140810183528154815260018201546001600160a01b0316938101939093526002810180549192840191611b1590612b73565b80601f0160208091040260200160405190810160405280929190818152602001828054611b4190612b73565b8015611b8e5780601f10611b6357610100808354040283529160200191611b8e565b820191906000526020600020905b815481529060010190602001808311611b7157829003601f168201915b5050505050815260200160038201548152602001600482015481526020016005820154815260200160068201805480602002602001604051908101604052809291908181526020016000905b82821015611c86578382906000526020600020018054611bf990612b73565b80601f0160208091040260200160405190810160405280929190818152602001828054611c2590612b73565b8015611c725780601f10611c4757610100808354040283529160200191611c72565b820191906000526020600020905b815481529060010190602001808311611c5557829003601f168201915b505050505081526020019060010190611bda565b50505050815260200160078201805480602002602001604051908101604052809291908181526020016000905b82821015611d5f578382906000526020600020018054611cd290612b73565b80601f0160208091040260200160405190810160405280929190818152602001828054611cfe90612b73565b8015611d4b5780601f10611d2057610100808354040283529160200191611d4b565b820191906000526020600020905b815481529060010190602001808311611d2e57829003601f168201915b505050505081526020019060010190611cb3565b505050908252506008919091015460ff808216151560208401526101009091041615156040909101528251839083908110611d9c57611d9c612d6e565b6020908102919091010152600101611aa5565b5090505b92915050565b60008054606091836001600160401b03811115611dd857611dd8612bad565b604051908082528060200260200182016040528015611e01578160200160208202803683370190505b509050600080835b600081118015611e1857508683105b15611ea7576000611e2a600183612d5b565b60008181526002602052604090206008015490915060ff1615611e4d5750611e95565b88831015611e685782611e5f81612d42565b93505050611e95565b80858581518110611e7b57611e7b612d6e565b602090810291909101015283611e9081612d42565b945050505b80611e9f81612b30565b915050611e09565b506000826001600160401b03811115611ec257611ec2612bad565b604051908082528060200260200182016040528015611eeb578160200160208202803683370190505b50905060005b83811015611f3857848181518110611f0b57611f0b612d6e565b6020026020010151828281518110611f2557611f25612d6e565b6020908102919091010152600101611ef1565b50979650505050505050565b6040518061014001604052806000548152602001336001600160a01b0316815260200189898080601f0160208091040260200160405190810160405280939291908181526020018383808284376000920182905250938552505042602084015250604082018190526060820152608001611fbe8587612df5565b8152602001611fcd8789612df5565b8152600060208083018290526001604093840181905282548352600280835292849020855181559185015190820180546001600160a01b0319166001600160a01b03909216919091179055918301519082019061202a9082612c12565b50606082015160038201556080820151600482015560a0820151600582015560c082015180516120649160068401916020909101906123c1565b5060e082015180516120809160078401916020909101906123c1565b50610100828101516008909201805461012090940151151590910261ff00199215159290921661ffff19909316929092171790553360008181526003602090815260408083208354815460018101835591855283852090910155928252600b90529081208054600a92906120f5908490612d84565b90915550506000546040513391907f5475621b07408f75d49c828caa5aeacb3a5e98d3497e75730dc184677504401c90612136908c908c9088908890612ed3565b60405180910390a360005b858110156121af576000547f9da4103e4415d3054fe6fa0d64f2d023c294f27bba819d1414f0f6eb3fc80cfd88888481811061217f5761217f612d6e565b90506020028101906121919190612f05565b60405161219f929190612f4b565b60405180910390a2600101612141565b506000805490806121bf83612d42565b91905055505050505050505050565b600081815260026020526040902060080154610100900460ff166122045760405162461bcd60e51b81526004016106d090612b47565b600081815260066020908152604080832033845290915290205460ff161561225e5760405162461bcd60e51b815260206004820152600d60248201526c105b1c9958591e481b1a5ad959609a1b60448201526064016106d0565b60008181526006602090815260408083203384528252808320805460ff191660011790558383526002909152812060040180549161229b83612d42565b9091555050336000908152600b602052604081208054600192906122c0908490612d84565b9091555050604051339082907fcf765d6f163c9b0d832e2a94f4c8e9bffd32a2c3ca5fdbb8cc67b5fe1441f41390600090a350565b6001600160a01b03811660009081526003602090815260409182902080548351818402810184019094528084526060939283018282801561235557602002820191906000526020600020905b815481526020019060010190808311612341575b50505050509050919050565b6040518061014001604052806000815260200160006001600160a01b031681526020016060815260200160008152602001600081526020016000815260200160608152602001606081526020016000151581526020016000151581525090565b828054828255906000526020600020908101928215612407579160200282015b8281111561240757825182906123f79082612c12565b50916020019190600101906123e1565b50612413929150612417565b5090565b8082111561241357600061242b8282612434565b50600101612417565b50805461244090612b73565b6000825580601f10612450575050565b601f01602090049060005260206000209081019061246e9190612471565b50565b5b808211156124135760008155600101612472565b80356001600160a01b038116811461249d57600080fd5b919050565b6000602082840312156124b457600080fd5b6124bd82612486565b9392505050565b6000602082840312156124d657600080fd5b5035919050565b6000815180845260005b81811015612503576020818501810151868301820152016124e7565b506000602082860101526020601f19601f83011685010191505092915050565b8881526001600160a01b03881660208201526101006040820181905260009061254e908301896124dd565b606083019790975250608081019490945260a0840192909252151560c0830152151560e0909101529392505050565b60008083601f84011261258f57600080fd5b5081356001600160401b038111156125a657600080fd5b6020830191508360208285010111156125be57600080fd5b9250929050565b600080600080600080606087890312156125de57600080fd5b86356001600160401b038111156125f457600080fd5b61260089828a0161257d565b90975095505060208701356001600160401b0381111561261f57600080fd5b61262b89828a0161257d565b90955093505060408701356001600160401b0381111561264a57600080fd5b61265689828a0161257d565b979a9699509497509295939492505050565b6000806040838503121561267b57600080fd5b50508035926020909101359150565b602080825282518282018190526000918401906040840190835b818110156126c25783518352602093840193909201916001016126a4565b509095945050505050565b600080604083850312156126e057600080fd5b823591506126f060208401612486565b90509250929050565b600082825180855260208501945060208160051b8301016020850160005b8381101561274957601f198584030188526127338383516124dd565b6020988901989093509190910190600101612717565b50909695505050505050565b805182526000602082015161277560208501826001600160a01b03169052565b50604082015161014060408501526127916101408501826124dd565b9050606083015160608501526080830151608085015260a083015160a085015260c083015184820360c08601526127c882826126f9565b91505060e083015184820360e08601526127e282826126f9565b9150506101008301516127fa61010086018215159052565b50610120830151611daf61012086018215159052565b6020815260006124bd6020830184612755565b6000806040838503121561283657600080fd5b61283f83612486565b946020939093013593505050565b87815286602082015260018060a01b038616604082015260e06060820152600061287a60e08301876124dd565b60808301959095525091151560a0830152151560c090910152949350505050565b600080604083850312156128ae57600080fd5b6128b783612486565b91506126f060208401612486565b6000806000604084860312156128da57600080fd5b8335925060208401356001600160401b038111156128f757600080fd5b6129038682870161257d565b9497909650939450505050565b60808152600061292360808301876124dd565b828103602084015261293581876124dd565b9050828103604084015261294981866124dd565b915050821515606083015295945050505050565b60008083601f84011261296f57600080fd5b5081356001600160401b0381111561298657600080fd5b6020830191508360208260051b85010111156125be57600080fd5b600080602083850312156129b457600080fd5b82356001600160401b038111156129ca57600080fd5b6129d68582860161295d565b90969095509350505050565b6000602082016020835280845180835260408501915060408160051b86010192506020860160005b82811015612a3b57603f19878603018452612a26858351612755565b94506020938401939190910190600101612a0a565b50929695505050505050565b6000806000806000806000806080898b031215612a6357600080fd5b88356001600160401b03811115612a7957600080fd5b612a858b828c0161257d565b90995097505060208901356001600160401b03811115612aa457600080fd5b612ab08b828c0161295d565b90975095505060408901356001600160401b03811115612acf57600080fd5b612adb8b828c0161295d565b90955093505060608901356001600160401b03811115612afa57600080fd5b612b068b828c0161257d565b999c989b5096995094979396929594505050565b634e487b7160e01b600052601160045260246000fd5b600081612b3f57612b3f612b1a565b506000190190565b602080825260129082015271141bdcdd08191bd95cdb89dd08195e1a5cdd60721b604082015260600190565b600181811c90821680612b8757607f821691505b602082108103612ba757634e487b7160e01b600052602260045260246000fd5b50919050565b634e487b7160e01b600052604160045260246000fd5b601f821115612c0d57806000526020600020601f840160051c81016020851015612bea5750805b601f840160051c820191505b81811015612c0a5760008155600101612bf6565b50505b505050565b81516001600160401b03811115612c2b57612c2b612bad565b612c3f81612c398454612b73565b84612bc3565b6020601f821160018114612c735760008315612c5b5750848201515b600019600385901b1c1916600184901b178455612c0a565b600084815260208120601f198516915b82811015612ca35787850151825560209485019460019092019101612c83565b5084821015612cc15786840151600019600387901b60f8161c191681555b50505050600190811b01905550565b81835281816020850137506000828201602090810191909152601f909101601f19169091010190565b606081526000612d0d60608301888a612cd0565b8281036020840152612d20818789612cd0565b90508281036040840152612d35818587612cd0565b9998505050505050505050565b600060018201612d5457612d54612b1a565b5060010190565b81810381811115611db357611db3612b1a565b634e487b7160e01b600052603260045260246000fd5b80820180821115611db357611db3612b1a565b6001600160a01b0384168152604060208201819052600090612dbc9083018486612cd0565b95945050505050565b604051601f8201601f191681016001600160401b0381118282101715612ded57612ded612bad565b604052919050565b60006001600160401b03831115612e0e57612e0e612bad565b8260051b612e1e60208201612dc5565b84815290830190602081019036831115612e3757600080fd5b845b83811015610e495780356001600160401b03811115612e5757600080fd5b860136601f820112612e6857600080fd5b80356001600160401b03811115612e8157612e81612bad565b612e94601f8201601f1916602001612dc5565b818152366020838501011115612ea957600080fd5b81602084016020830137600060208383010152808652505050602083019250602081019050612e39565b604081526000612ee7604083018688612cd0565b8281036020840152612efa818587612cd0565b979650505050505050565b6000808335601e19843603018112612f1c57600080fd5b8301803591506001600160401b03821115612f3657600080fd5b6020019150368190038213156125be57600080fd5b602081526000612f5f602083018486612cd0565b94935050505056fea264697066735822122055135061648287a27ccdec15696d3ac987e105b1adacdb9ce0afdac5b57906d964736f6c634300081c0033",
  "linkReferences": {},
  "deployedLinkReferences": {}
}